:100000000C94B5000C94D2000C94D2000C94D20045
:100010000C94A0020C94D2000C94D2000C94D20048
:100020000C94D2000C94D2000C94D2000C94D20008
:100030000C94D2000C94D2000C94D2000C94D200F8
:100040000C94D2000C94D2000C94D2000C94D200E8
:100050000C94D2000C94B9020C94D2000C94D200EF
:100060000C94D2000C94D2006E616E00696E660032
:1000700000407A10F35A00A0724E18090010A5D45F
:10008000E80000E87648170000E40B54020000CABC
:100090009A3B000000E1F505000080969800000002
:1000A00040420F000000A086010000001027000061
:1000B0000000E803000000006400000000000A00E7
:1000C000000000000100000000002C76D888DC67EA
:1000D0004F0823DFC1DFAE59E1B1B796E5E3E45342
:1000E000C63AE651997696E8E6C28426EB898C9B5F
:1000F00062ED407C6FFCEFBC9C9F40F2BAA56FA5FF
:10010000F490055A2AF75C936B6CF9676DC11BFC80
:10011000E0E40D47FEF520E6B500D0ED902E03009B
:10012000943577050080841E080000204E0A0000E8
:1001300000C80C333333330F986E12831141EF8DA7
:100140002114893BE65516CFFEE6DB18D1844B38E7
:100150001BF77C1D901DA4BBE424203284725E2218
:100160008100C9F124ECA1E53D2711241FBECFEF8A
:10017000D8E0DEBFCDBF11E0A0E0B1E0E2E9F6E1FA
:1001800002C005900D92AA30B107D9F721E0AAE08C
:10019000B1E001C01D92A031B207E1F70E943D021B
:1001A0000C94470B0C94000088B1846088B900005F
:1001B00088B18B7F88B90895CF93C82F662321F02B
:1001C00088B1816088B903C088B18E7F88B988B151
:1001D0008D7F88B98AB184608AB98AB188608AB90A
:1001E0008AB180618AB98AB180628AB98BB18F7D08
:1001F0008BB98BB18F7E8BB98BB1877F8BB98BB16C
:100200008B7F8BB9CC231CF48BB180628BB9C6FF7A
:1002100003C08BB180618BB9C5FF03C08BB188600F
:100220008BB9C4FF03C08BB184608BB90E94D4002A
:100230008BB18F7D8BB98BB18F7E8BB98BB1877F63
:100240008BB98BB18B7F8BB9C3FF03C08BB180623D
:100250008BB9C2FF03C08BB180618BB9C1FF03C0F2
:100260008BB188608BB9C0FF03C08BB184608BB940
:100270000E94D4008BB184608BB98BB188608BB93C
:100280008BB180618BB98BB180628BB9CF910895AE
:10029000882321F088B1816088B903C088B18E7F3E
:1002A00088B988B1826088B98AB18B7F8AB98AB1EE
:1002B000877F8AB98AB18F7E8AB98AB18F7D8AB9E0
:1002C00088B1846088B900004A9902C080E001C00A
:1002D00080E14B9980624C9980644D99806898B117
:1002E0009B7F98B9000098B1946098B900004A9932
:1002F00081604B9982604C9984604D99886098B177
:100300009B7F98B9089580E00E9448018823DCF320
:1003100000C000C080E00E9448010895CF93C82F1C
:100320000E94830160E08C2F0E94DC00CF91089531
:1003300081E00E948E010895CF93C82F0E9483010F
:10034000CA3049F4803410F480E401C080E0805861
:100350000E948E0104C061E08C2F0E94DC00CF91CE
:100360000895CF93DF93FC0103C00E949C01FE011E
:10037000EF01219680818111F8CFDF91CF9108950F
:10038000CF93C82F87B1816087B987B1826087B961
:1003900087B1846087B98AB184608AB98AB188607C
:1003A0008AB98AB180618AB98AB180628AB98FE9D3
:1003B0009FE00197F1F700C000008BB188608BB916
:1003C0008BB184608BB90E94D40081EE94E00197D8
:1003D000F1F700C000000E94D40095E19A95F1F772
:1003E00000000E94D40085E18A95F1F700008BB1EE
:1003F0008B7F8BB90E94D40095E19A95F1F70000AC
:1004000088E20E948E0188E00E948E010E9498017D
:1004100086E00E948E018C2F0E948E01CF9108955C
:1004200060910C0170910D0180910E0190910F016E
:1004300020E030E0A9010E9424049B01AC0160E0AF
:1004400070E08FE793E40E94FA020E94670367BDA1
:10045000089580910A0190910B0180FF07C085B13A
:100460008F7D85B985B1806185B9089585B18F7E0D
:1004700085B985B1806285B90895CF93DF93CDB7F3
:10048000DEB72A970FB6F894DEBF0FBECDBF8CE063
:100490000E94C00184B184B9ECE6F0E08081816003
:1004A0008083E8E6F0E080818260808387B180729B
:1004B00087B988B1806288B9ECE7F0E08081856413
:1004C0008083EAE7F0E080818F68808380818064A8
:1004D00080838AB180648AB984B5836084BD84B521
:1004E000806884BD85B5816085BD78940E9498013F
:1004F0000E9410020E9429020E94980160910C0142
:1005000070910D0180910E0190910F018E010F5F8E
:100510001F4F20E030E046E050E00E944508C8014F
:100520000E94B10180E091E00E94B1012FE58AEEC6
:1005300090E0215080409040E1F700C00000D6CF0D
:100540001F920F920FB60F9211248F939F93349B9B
:1005500009C080910A0190910B01019690930B01C3
:1005600080930A019F918F910F900FBE0F901F9063
:1005700018951F920F920FB60F9211242F933F934D
:100580004F935F936F937F938F939F93AF93BF939B
:10059000EF93FF938091780090917900892F9927AC
:1005A0008695869524E6289FB001299F700D112419
:1005B00080E090E00E94960360930C0170930D011F
:1005C00080930E0190930F01EAE7F0E08081806450
:1005D0008083FF91EF91BF91AF919F918F917F9118
:1005E0006F915F914F913F912F910F900FBE0F90A0
:1005F0001F9018955058BB27AA270E9412030C94ED
:10060000EA030E94DC0338F00E94E30320F039F48F
:100610009F3F19F426F40C94D9030EF4E095E7FB00
:100620000C94D303E92F0E94FB0358F3BA17620717
:1006300073078407950720F079F4A6F50C941D0440
:100640000EF4E0950B2EBA2FA02D0B01B9019001ED
:100650000C01CA01A0011124FF27591B99F0593F31
:1006600050F4503E68F11A16F040A22F232F342F79
:100670004427585FF3CF469537952795A795F040C7
:100680005395C9F77EF41F16BA0B620B730B840BDC
:10069000BAF09150A1F0FF0FBB1F661F771F881F94
:1006A000C2F70EC0BA0F621F731F841F48F48795EC
:1006B00077956795B795F7959E3F08F0B0CF9395DE
:1006C000880F08F09927EE0F9795879508950E9457
:1006D000030488F09F5798F0B92F9927B751B0F0CD
:1006E000E1F0660F771F881F991F1AF0BA95C9F7B6
:1006F00014C0B13091F00E941D04B1E008950C9433
:100700001D04672F782F8827B85F39F0B93FCCF3E5
:10071000869577956795B395D9F73EF49095809532
:10072000709561957F4F8F4F9F4F0895E89409C052
:1007300097FB3EF490958095709561957F4F8F4F14
:100740009F4F9923A9F0F92F96E9BB279395F6952A
:10075000879577956795B795F111F8CFFAF4BB0FA8
:1007600011F460FF1BC06F5F7F4F8F4F9F4F16C00C
:10077000882311F096E911C0772321F09EE8872F96
:10078000762F05C0662371F096E8862F70E060E052
:100790002AF09A95660F771F881FDAF7880F9695CB
:1007A000879597F9089597F99F6780E870E060E072
:1007B00008959FEF80EC089500240A9416161706FA
:1007C00018060906089500240A9412161306140642
:1007D00005060895092E0394000C11F4882352F0A5
:1007E000BB0F40F4BF2B11F460FF04C06F5F7F4F5D
:1007F0008F4F9F4F089557FD9058440F551F59F044
:100800005F3F71F04795880F97FB991F61F09F3FFD
:1008100079F087950895121613061406551FF2CF26
:100820004695F1DF08C0161617061806991FF1CF76
:1008300086957105610508940895E894BB2766279D
:100840007727CB0197F908950E9437040C94EA03A7
:100850000E94DC0338F00E94E30320F0952311F09E
:100860000C94D3030C94D90311240C941E040E94FD
:10087000FB0370F3959FC1F3950F50E0551F629FE6
:10088000F001729FBB27F00DB11D639FAA27F00DE9
:10089000B11DAA1F649F6627B00DA11D661F829F10
:1008A0002227B00DA11D621F739FB00DA11D621FF5
:1008B000839FA00D611D221F749F3327A00D611D12
:1008C000231F849F600D211D822F762F6A2F1124F4
:1008D0009F5750409AF0F1F088234AF0EE0FFF1F27
:1008E000BB1F661F771F881F91505040A9F79E3F7E
:1008F000510580F00C94D3030C941E045F3FE4F385
:10090000983ED4F3869577956795B795F795E795D3
:100910009F5FC1F7FE2B880F911D9695879597F9DC
:100920000895A0E1B0E0E7E9F4E00C940E087C0142
:100930001B016A01FC0117821682838181FF44C377
:100940009E012F5F3F4F3901F7019381F10193FD24
:10095000859193FF81911F01882309F431C385326A
:1009600039F493FD859193FF81911F01853239F40C
:10097000B70190E00E94530956016501E5CF10E0F0
:10098000512C912CFFE1F915D8F08B3279F038F425
:10099000803279F08332A1F4F92DF0612EC08D32CE
:1009A00061F0803369F4292D21602DC0392D32602A
:1009B000932E892D8460982E2AC0E92DE86015C0F9
:1009C00097FC2DC020ED280F2A3088F496FE06C033
:1009D0003AE0139F200D1124122F19C08AE0589E6F
:1009E000200D1124522EE92DE0629E2E10C08E3271
:1009F00031F496FCE5C2F92DF0649F2E08C08C36C8
:100A000021F4292D2068922E02C0883641F4F1018C
:100A100093FD859193FF81911F018111B3CF9BEBD2
:100A2000980F933020F4992D9061805E07C09BE968
:100A3000980F933008F066C1992D9F7E96FF16E0BF
:100A40009F73992E853619F49064992E08C08636C6
:100A500021F4392F3068932E02C01111115097FEE6
:100A600007C01C3350F444244394410E27E00BC0CC
:100A7000183038F027E017E005C027E09CE3492E46
:100A800002C0212F412C560184E0A80EB11CF601B2
:100A90006081718182819381042DA3010E94650888
:100AA0006C01F981FC87F0FF02C0F3FF06C091FCE6
:100AB00006C092FE06C000E205C00DE203C00BE2D4
:100AC00001C000E08C858C7019F001115AC29BC2E4
:100AD00097FE10C04C0CFC85F4FF04C08A81813362
:100AE00009F44A94141474F528E0241578F588E084
:100AF000482E2CC096FC2AC0812F90E08C159D05B5
:100B00009CF03CEFC3163FEFD30674F0892D80684C
:100B1000982E0AC0E2E0F0E0EC0FFD1FE10FF11D9E
:100B20008081803319F411501111F4CF97FE0EC05B
:100B300044244394410E812F90E0C816D9062CF42A
:100B40001C1904C04424439401C010E097FE06C061
:100B50001C141D0434F4C601019605C085E090E024
:100B600002C081E090E001110196112331F0212FA4
:100B700030E02F5F3F4F820F931F252D30E082170B
:100B8000930714F4581A01C0512C892D897049F427
:100B9000552039F0B70180E290E00E9453095A9441
:100BA000F7CF002329F0B701802F90E00E9453096E
:100BB00093FC09C0552039F0B70180E390E00E9412
:100BC00053095A94F7CF97FE4CC04601D7FE02C096
:100BD000812C912CC60188199909F301E80FF91F9E
:100BE000FE87ED87960124193109388B2F87012F55
:100BF00010E01195019511093FEF8316930629F432
:100C0000B7018EE290E00E945309C814D9044CF059
:100C10008F8598898815990524F4ED85FE85818155
:100C200001C080E3F1E08F1A91082D853E852F5F8A
:100C30003F4F3E872D87801691062CF0B70190E03C
:100C40000E945309D9CFC814D90441F49A8196332C
:100C500020F4953319F43C8534FF81E3B70190E02B
:100C60004EC08A81813319F09C859F7E9C87B70195
:100C700090E00E945309111105C094FC18C085E64C
:100C800090E017C0B7018EE290E00E9453091E5F0A
:100C900082E001E0080FF301E80FF11D8081B70148
:100CA00090E00E945309802F0113F3CFE6CF85E433
:100CB00090E0B7010E945309D7FC06C0C114D104CB
:100CC00041F4EC85E4FF05C0D194C194D1088DE2D4
:100CD00001C08BE2B70190E00E94530980E32AE053
:100CE000C216D1042CF08F5FFAE0CF1AD108F7CFEB
:100CF000B70190E00E945309B701C601C0960E9457
:100D0000530954C1833631F0833779F0833509F0C4
:100D100056C020C0560132E0A30EB11CF6018081FE
:100D2000898301E010E0630112C05601F2E0AF0ECA
:100D3000B11CF601C080D18096FE03C0612F70E027
:100D400002C06FEF7FEFC6010E9448098C01F92DA8
:100D5000FF7714C0560122E0A20EB11CF601C0803C
:100D6000D18096FE03C0612F70E002C06FEF7FEF6D
:100D7000C6010E943D098C01F92DF0689F2EF3FDFC
:100D80001AC0852D90E008171907A8F4B70180E272
:100D900090E00E9453095A94F4CFF60197FC859194
:100DA00097FE81916F01B70190E00E9453095110A5
:100DB0005A94015011090115110579F7F7C08436CD
:100DC00011F0893661F5560197FE09C024E0A20EA4
:100DD000B11CF60160817181828193810AC0F2E0C9
:100DE000AF0EB11CF60160817181072E000C880BDB
:100DF000990BF92DFF769F2E97FF09C0909580954E
:100E0000709561957F4F8F4F9F4FF0689F2E2AE01E
:100E100030E0A3010E948F09C82EC6183FC0092DDB
:100E2000853721F40F7E2AE030E01DC0097F8F3620
:100E300091F018F4883559F0C3C0803719F088371D
:100E400011F0BEC0006104FF09C0046007C094FE39
:100E500008C0066006C028E030E005C020E130E0B0
:100E600002C020E132E0560107FF09C084E0A80E6D
:100E7000B11CF601608171818281938108C0F2E02A
:100E8000AF0EB11CF6016081718180E090E0A3019A
:100E90000E948F09C82EC6180F77902E96FE0BC0A1
:100EA000092D0E7FC11650F494FE0AC092FC08C0B2
:100EB000092D0E7E05C0DC2C092D03C0DC2C01C0E1
:100EC000D12E04FF0DC0FE01EC0DF11D8081803399
:100ED00011F4097E09C002FF06C0D394D39404C064
:100EE000802F867809F0D39403FD11C000FF06C05F
:100EF0001C2DD51480F4150D1D190DC0D51458F4F2
:100F0000B70180E290E00E945309D394F7CFD51443
:100F100010F45D1801C0512C04FF10C0B70180E32C
:100F200090E00E94530902FF17C001FD03C088E74B
:100F300090E002C088E590E0B7010CC0802F867871
:100F400059F001FF02C08BE201C080E207FD8DE293
:100F5000B70190E00E945309C11638F4B70180E34D
:100F600090E00E9453091150F7CFCA94F301EC0DA1
:100F7000F11D8081B70190E00E945309C110F5CFA7
:100F800015C0F4E0F51560F584E0581A93FE1FC013
:100F9000011127C02C8523FF2AC008E610E0392D57
:100FA0003071932EF8018491811124C0552009F4E9
:100FB000E4CCB70180E290E00E9453095A94F6CF46
:100FC000F7018681978126C08FEF9FEF23C0B7017D
:100FD00080E290E00E9453095A945110F8CFD8CF84
:100FE000512CB701802F90E00E945309D3CF0CE61B
:100FF00010E0D5CF91108052B70190E00E945309C4
:101000000F5F1F4FCFCF23E0251510F483E0BDCF36
:10101000512CC0CF6096E2E10C942A082F923F92A7
:101020004F925F926F927F928F929F92AF92BF92F8
:10103000CF92DF92EF92FF920F931F93CF93DF93A4
:10104000CDB7DEB7CA1BDB0B0FB6F894DEBF0FBE01
:10105000CDBF09942A88398848885F846E847D844E
:101060008C849B84AA84B984C884DF80EE80FD8050
:101070000C811B81AA81B981CE0FD11D0FB6F894C6
:10108000DEBF0FBECDBFED010895EF920F931F930A
:10109000CF93DF93E80147FD02C034E001C034E1A3
:1010A000042E000C550B57FF03C051954195510973
:1010B000E32E022F242FAE010E94ED09CE01DF9115
:1010C000CF911F910F91EF900895283008F027E0FD
:1010D0003327DA01990F311D87FD91600096610574
:1010E000710539F432602E5F3D9330E32A95E1F7C4
:1010F00008959F3F30F080387105610509F03C5F2D
:101100003C5F3D93913008F08068911DDF93CF9351
:101110001F930F93FF92EF92192F987F9695E92FC7
:1011200096959695E90FFF27E653FF4F99273327AA
:10113000EE24FF24A701E70105900894079428F402
:10114000360FE71EF81E491F511D660F771F881FB7
:10115000991F0694A1F70590079428F4E70EF81E4E
:10116000491F561FC11D770F881F991F661F0694C0
:10117000A1F70590079428F4F80E491F561FC71FC2
:10118000D11D880F991F661F771F0694A1F7059040
:10119000079420F4490F561FC71FD81F990F661FC9
:1011A000771F881F0694A9F784911095177041F056
:1011B000D695C79557954795F794E7941A95C1F733
:1011C000E0E7F0E06894159015913591659195915F
:1011D00005907FE27395E118F10A430B560BC90B9A
:1011E000D009C0F7E10CF11E431F561FC91FD01DC7
:1011F0007EF4703311F48A95E6CFE894015030F014
:10120000080F0AF40027021708F4202F2395022F55
:101210007A3328F079E37D932A95E9F710C07D931E
:101220002A9589F60694979567953795179517949B
:10123000E118F10A430B560BC90BD00998F023951E
:101240007E9173957A3308F070E37C932013B8F79E
:101250007E9170617D9330F0839571E37D9370E3AF
:101260002A95E1F71124EF90FF900F911F91CF91F4
:10127000DF91992787FD90950895FC0105906150B5
:1012800070400110D8F7809590958E0F9F1F08959C
:10129000FC016150704001900110D8F78095909545
:1012A0008E0F9F1F08950F931F93CF93DF93FB0122
:1012B000238121FD03C08FEF9FEF2CC022FF16C0BA
:1012C00046815781248135814217530744F4A08118
:1012D000B1819D012F5F3F4F318320838C93268105
:1012E00037812F5F3F4F3783268314C08B01EC017A
:1012F000FB010084F185E02D0995892BE1F6D801E9
:1013000016968D919C911797019617969C938E93A4
:101310001697CE01DF91CF911F910F910895FA0199
:10132000AA27283051F1203181F1E8946F936E7F24
:101330006E5F7F4F8F4F9F4FAF4FB1E03ED0B4E015
:101340003CD0670F781F891F9A1FA11D680F791F56
:101350008A1F911DA11D6A0F711D811D911DA11D67
:1013600020D009F468943F912AE0269F1124301977
:10137000305D3193DEF6CF010895462F4770405D12
:101380004193B3E00FD0C9F7F6CF462F4F70405DC1
:101390004A3318F0495D31FD4052419302D0A9F71C
:1013A000EACFB4E0A6959795879577956795BA9516
:1013B000C9F700976105710508959B01AC010A2EDC
:1013C00006945795479537952795BA95C9F7620FB3
:1013D000731F841F951FA01D0895A9E0B0E0E3EFDF
:1013E000F9E00C9414086A01122FB02E2BE3201799
:1013F00020F0FF24F394F00E02C02CE3F22E0F2D08
:1014000027E0AE014F5F5F4F0E946508BC01498134
:10141000842F8970813031F0E1FC06C0E0FE06C007
:1014200090E205C09DE203C09BE201C090E05E2D0A
:10143000507143FF3CC0911102C083E001C084E0C1
:10144000811718F4212F281B01C020E051110BC077
:10145000F601822F30E2882319F031938150FBCFBF
:10146000C20ED11C20E0992329F0D6019C93F601ED
:1014700031966F01C6010396E2FE0AC03EE4D60132
:101480003C9341E411964C93119712963C9306C0FD
:101490003EE6F601308341E641833283FC01322F80
:1014A00040E2332309F442C041933150FACF42FF66
:1014B00044C0911102C083E001C084E0811718F498
:1014C000212F281B01C020E051110BC0F601822FF3
:1014D00030E2882319F031938150FBCFC20ED11C2A
:1014E00020E0992329F0D6019C93F60131966F01F3
:1014F000C6010396E2FE0BC039E4D6013C933EE4FC
:1015000011963C93119736E412963C9307C039E646
:10151000F60130833EE6318336E63283FC01322F1A
:1015200040E2332319F041933150FBCFFC01E20F2D
:10153000F11D10828EEF9FEFA6C021E030E09111E7
:1015400002C020E030E0161617061CF4FB013196AD
:1015500002C0E1E0F0E02E0F3F1FBB2021F0EB2D99
:10156000F0E0319602C0E0E0F0E02E0F3F1FE12FE7
:10157000F0E02E173F071CF4121B212F01C020E0C2
:101580008E2D887159F4F601822F30E2882319F0EC
:1015900031938150FBCFC20ED11C20E0992329F05A
:1015A000D6019C93F60131966F0151110BC0F601E3
:1015B000822F90E3882319F091938150FBCFC20EC4
:1015C000D11C20E00F2D060F9A81342F307144FF7B
:1015D00003C0913309F40150101624F4093018F0B7
:1015E00008E001C001E0AB0177FF02C040E050E03D
:1015F000FB01E41BF50BA1E0B0E0AC0FBD1FEA0F4F
:10160000FB1F8EE2A82E4B01801A91080B2D10E0D3
:101610001195019511094F3FBFEF5B0721F4D601EA
:10162000AC9211966D01641775072CF0841695061F
:1016300014F4818101C080E3415051093196D601F3
:1016400011967D014017510724F0D6018C93670154
:10165000E2CF6417750739F4963320F4953319F403
:10166000311101C081E3F6018083F701822F90E2FE
:10167000882319F091938150FBCFF701E20FF11D00
:10168000108280E090E02996ECE00C943008F89409
:02169000FFCF8A
:0A16920025204765736368772E007A
:00000001FF
