S017000057485F506F696E746572506F7274732E7372656316
S11300000C9434000C943E000C943E000C943E007E
S11300100C943E000C943E000C943E000C943E0064
S11300200C943E000C943E000C943E000C943E0054
S11300300C943E000C943E000C943E000C943E0044
S11300400C943E000C943E000C943E000C943E0034
S11300500C943E000C943E000C943E000C943E0024
S11300600C943E000C943E0011241FBECFEFD8E048
S1130070DEBFCDBF0E9464000C9479000C94000094
S11300808FEF8AB984B90895AC0120E030E018C03C
S1130090FA01E20FF31F9081990F990F9BB9908198
S11300A0929596959695937095B98FE794E8EEE1BD
S11300B081509040E040E1F700C000002F5F3F4FC7
S11300C0261737072CF30895CF93DF9300D01F92A0
S11300D0CDB7DEB70E94400081E4898382E48A833D
S11300E080E88B8363E070E0CE0101960E944400B7
S10900F0F9CFF894FFCFE4
S9030000FC
