:100000000C9434000C9446000C9446000C9446006A
:100010000C9465000C9446000C9446000C94460029
:100020000C9446000C9446000C9446000C94460038
:100030000C9446000C9446000C9446000C94460028
:100040000C9446000C9446000C9446000C94460018
:100050000C9446000C9446000C9446000C94460008
:100060000C9446000C94460011241FBECFEFD8E03C
:10007000DEBFCDBF21E0A0E0B1E001C01D92A23003
:10008000B207E1F70E9448000C9482000C94000033
:1000900078942FB7F89481E014C08091000190917A
:1000A0000101019721F485B1816085B909C0809172
:1000B000000190910101892B19F485B1817085B9F6
:1000C00080E08111EACF2FBFE4CF1F920F920FB6CD
:1000D0000F9211248F939F93309B07C081E090E093
:1000E000909301018093000106C0319B04C01092DF
:1000F0000101109200019F918F910F900FBE0F9000
:080100001F901895F894FFCF41
:00000001FF
