:100000000C9434000C9451000C9451000C94510049
:100010000C9466020C9451000C9451000C94510005
:100020000C9451000C9451000C9451000C9451000C
:100030000C9451000C9451000C9451000C945100FC
:100040000C9451000C9451000C9451000C945100EC
:100050000C9451000C9451000C9451000C945100DC
:100060000C9451000C94510011241FBECFEFD8E026
:10007000DEBFCDBF12E0A0E0B1E0ECE5FEE002C0E3
:1000800005900D92A234B107D9F722E0A2E4B2E0C4
:1000900001C01D92AB34B207E1F70E9443020C94F9
:1000A0002C070C940000DC01892B69F480E0089592
:1000B0009C91E82FE927F0E0EC5FFE4F80812F5FF5
:1000C0003F4F119603C080E020E030E0261737074D
:1000D00078F3089588B1846088B985E08A95F1F74E
:1000E000000088B18B7F88B90895CF93C82F66230D
:1000F00021F088B1816088B903C088B18E7F88B94A
:1001000088B18D7F88B98AB184608AB98AB18860E4
:100110008AB98AB180618AB98AB180628AB98BB1A1
:100120008F7D8BB98BB18F7E8BB98BB1877F8BB96C
:100130008BB18B7F8BB9CC231CF48BB180628BB9D4
:10014000C6FF03C08BB180618BB9C5FF03C08BB103
:1001500088608BB9C4FF03C08BB184608BB90E94E7
:100160006A008BB18F7D8BB98BB18F7E8BB98BB1D0
:10017000877F8BB98BB18B7F8BB9C3FF03C08BB1EA
:1001800080628BB9C2FF03C08BB180618BB9C1FFA4
:1001900003C08BB188608BB9C0FF03C08BB1846092
:1001A0008BB90E946A008BB184608BB98BB1886077
:1001B0008BB98BB180618BB98BB180628BB9CF91D8
:1001C0000895882321F088B1816088B903C088B17F
:1001D0008E7F88B988B1826088B98AB18B7F8AB9ED
:1001E0008AB1877F8AB98AB18F7E8AB98AB18F7DB9
:1001F0008AB988B1846088B985E08A95F1F70000F2
:100200004A9902C080E001C080E14B9980624C991C
:1002100080644D99806898B19B7F98B995E09A95D4
:10022000F1F7000098B1946098B995E09A95F1F7CC
:1002300000004A9981604B9982604C9984604D9985
:10024000886098B19B7F98B9089580E00E94E10092
:100250008823DCF385E18A95F1F7000080E00E94B5
:10026000E1000895CF93C82F0E94250160E08C2FF4
:100270000E947500CF910895611104C080580E94BA
:100280003201089580540E943201089581E00E9455
:1002900032010895CF93C82F0E942501CA3049F436
:1002A000803410F480E401C080E080580E94320164
:1002B00004C061E08C2F0E947500CF910895CF9308
:1002C000DF93FC0103C00E944A01FE01EF01219669
:1002D00080818111F8CFDF91CF910895CF93C82FFE
:1002E00087B1816087B987B1826087B987B184603F
:1002F00087B98AB184608AB98AB188608AB98AB1BB
:1003000080618AB98AB180628AB98FEF99EF0197CB
:10031000F1F700C000008BB188608BB98BB18460AD
:100320008BB90E946A008FE19EE40197F1F700C04B
:1003300000000E946A008FEF90E00197F1F700C083
:1003400000000E946A008FEF90E00197F1F700C073
:1003500000008BB18B7F8BB90E946A008FEF90E019
:100360000197F1F700C0000088E20E94320188E0A6
:100370000E9432010E94460186E00E9432018C2FC9
:100380000E943201CF9108958BB180648BB92FEF19
:1003900083ED90E3215080409040E1F700C00000E1
:1003A0008BB18F7B8BB9089549E050E060E070E03D
:1003B00082E492E00E947A060E94C401089549E016
:1003C00050E060E070E082E492E00E946A060895E6
:1003D00068E070E082E492E00E94530080934A0259
:1003E000089568E070E082E492E00E9453009091EA
:1003F0004A02891303C081E090E0089580E090E014
:1004000008950F931F93CF93DF93CDB7DEB7609717
:100410000FB6F894DEBF0FBECDBF0E9446010E940A
:10042000DF010E94F101892B29F484E092E00E940F
:100430005F011EC080914402909145029F938F936B
:1004400087E192E09F938F938E010F5F1F4F1F9361
:100450000F930E94B7038AE192E00E945F01C801F6
:100460000E945F010F900F900F900F900F900F90D0
:1004700060960FB6F894DEBF0FBECDBFDF91CF916F
:100480001F910F9108958CE00E946E010E94460119
:100490008AB180648AB9ECE6F0E08081886080836C
:1004A000808180618083808180628083E8E6F0E0E3
:1004B00080818260808378940E940102FFCF0E9435
:1004C000A70364E670E00E94330308951F920F9221
:1004D0000FB60F921124CF92DF92EF92FF920F93FB
:1004E0001F932F933F934F935F936F937F938F93BC
:1004F0009F93AF93BF93EF93FF93CF93DF93CDB7CA
:10050000DEB7A097DEBFCDBF339B03C00E940102C0
:1005100082C0349B39C00E9446010E94DF0102E480
:1005200012E0F80184819581019695838483868108
:1005300097810196978386830E94D40183E292E09B
:100540000E945F01F801848195819F938F9387E1D9
:1005500092E09F938F938E010F5F1F4F1F930F9316
:100560000E94B70361E080E00E943C0182E392E0D8
:100570000E945F01C8010E945F010F900F900F90D1
:100580000F900F900F9047C0359B45C00E944601C9
:100590000E945F020F2EF2E4EF2EF2E0FF2EF02D0C
:1005A000F70193838283828193819F938F9307E1E5
:1005B00012E01F930F936E01F1E1CF0ED11CDF9279
:1005C000CF920E94B70388E392E00E945F01C601C8
:1005D0000E945F010E94E8010E94D401F70180851A
:1005E0001F928F931F930F938E010F5F1F4F1F93C7
:1005F0000F930E94B70361E080E00E943C0182E318
:1006000092E00E945F01C8010E945F010FB6F8945A
:10061000DEBF0FBECDBF9FEFE3ECF9E09150E040AD
:10062000F040E1F700C00000A0960FB6F894DEBFDE
:100630000FBECDBFDF91CF91FF91EF91BF91AF91F1
:100640009F918F917F916F915F914F913F912F91EA
:100650001F910F91FF90EF90DF90CF900F900FBE02
:100660000F901F90189597FB072E16F4009407D053
:1006700077FD09D00E94470307FC05D03EF4909512
:1006800081959F4F0895709561957F4F0895AA1B9E
:10069000BB1B51E107C0AA1FBB1FA617B70710F06D
:1006A000A61BB70B881F991F5A95A9F7809590959F
:1006B000BC01CD0108958F929F92AF92BF92CF92CD
:1006C000DF92EF92FF92CF93DF93EC016881798103
:1006D0008A819B81611571058105910521F464E290
:1006E00079ED8BE597E02DE133EF41E050E00E949A
:1006F000920649015A019B01AC01A7EAB1E40E94AC
:10070000B1066B017C01ACEEB4EFA50194010E942F
:10071000BF06DC01CB018C0D9D1DAE1DBF1DB7FFBB
:1007200003C00197A109B04888839983AA83BB833A
:100730009F77DF91CF91FF90EF90DF90CF90BF90A8
:10074000AF909F908F9008950E945B03089580E082
:1007500091E00E945B030895A0E0B0E08093000167
:1007600090930101A0930201B09303010895AEE0BC
:10077000B0E0EDEBF3E00C94D2060D891E8986E023
:100780008C831A8309838FEF9FE79E838D83AE014D
:10079000475E5F4F6F89788DCE0101960E94D90325
:1007A000EF81F885E00FF11F10822E96E4E00C94A3
:1007B000EE06ABE0B0E0EFEDF3E00C94C4066C01A4
:1007C0007B018A01FC0117821682838181FFCCC1E3
:1007D000CE0101963C01F6019381F70193FD8591CD
:1007E00093FF81917F01882309F4BAC1853239F4DE
:1007F00093FD859193FF81917F01853229F4B601A4
:1008000090E00E94D005E7CF912C212C312CFFE104
:10081000F315D8F08B3279F038F4803279F08332E6
:10082000A1F4232D20611DC08D3261F0803369F465
:10083000232D216016C0832D8260382EE32DE460C5
:100840003E2E2AC0F32DF8601DC037FC2DC020EDD0
:10085000280F2A3040F08E32B9F436FC81C1232DA6
:100860002064322E19C036FE06C08AE0989E200D04
:100870001124922E11C0EAE02E9E200D1124222E6A
:10088000F32DF0623F2E08C08C3621F4832D806852
:10089000382E02C0883641F4F70193FD859193FF0D
:1008A00081917F018111B3CF982F9F7D9554933013
:1008B00028F40C5F1F4F9FE399830DC0833631F0FE
:1008C000833771F0833509F059C021C0F801808168
:1008D00089830E5F1F4F88248394912C530113C08A
:1008E0002801F2E04F0E511CF801A080B18036FEC5
:1008F00003C0692D70E002C06FEF7FEFC5010E9459
:10090000C5054C018201F32DFF773F2E16C028014B
:1009100022E0420E511CF801A080B18036FE03C0D7
:10092000692D70E002C06FEF7FEFC5010E94BA052C
:100930004C01F32DF0683F2E820133FC1BC0822D49
:1009400090E088169906B0F4B60180E290E00E942B
:10095000D0052A94F4CFF50137FC859137FE8191BB
:100960005F01B60190E00E94D00521102A9421E099
:10097000821A91088114910471F7E8C0843611F04D
:10098000893641F5F80137FE07C0608171818281A7
:1009900093810C5F1F4F08C060817181072E000C8E
:1009A000880B990B0E5F1F4FF32DFF763F2E97FF9D
:1009B00009C090958095709561957F4F8F4F9F4F9F
:1009C000F0683F2E2AE030E0A3010E940C06882E3A
:1009D000861845C0853731F4232D2F7EB22E2AE0AC
:1009E00030E025C0932D997FB92E8F36C1F018F4D1
:1009F000883579F0B5C0803719F0883721F0B0C05C
:100A0000E92FE061BE2EB4FE0DC0FB2DF460BF2EB9
:100A100009C034FE0AC0292F2660B22E06C028E085
:100A200030E005C020E130E002C020E132E0F80112
:100A3000B7FE07C060817181828193810C5F1F4F77
:100A400006C06081718180E090E00E5F1F4FA301BE
:100A50000E940C06882E8618FB2DFF773F2E36FE4F
:100A60000DC0232D2E7FA22E891458F434FE0BC006
:100A700032FC09C0832D8E7EA82E05C0B82CA32C75
:100A800003C0B82C01C0B92CA4FE0FC0FE01E80DB4
:100A9000F11D8081803321F49A2D997EA92E09C001
:100AA000A2FE06C0B394B39404C08A2D867809F0E0
:100AB000B394A3FC11C0A0FE06C0B21488F4280CA5
:100AC000922C9B180EC0B21460F4B60180E290E044
:100AD0000E94D005B394F7CFB21418F42B1802C0BB
:100AE000982C212CA4FE10C0B60180E390E00E9457
:100AF000D005A2FE17C0A1FC03C088E790E002C0A9
:100B000088E590E0B6010CC08A2D867859F0A1FEE8
:100B100002C08BE201C080E2A7FC8DE2B60190E04A
:100B20000E94D005891438F4B60180E390E00E9459
:100B3000D0059A94F7CF8A94F301E80DF11D8081D6
:100B4000B60190E00E94D0058110F5CF222009F473
:100B500042CEB60180E290E00E94D0052A94F6CF02
:100B6000F6018681978102C08FEF9FEF2B96E2E11D
:100B70000C94E006FC010590615070400110D8F71C
:100B8000809590958E0F9F1F0895FC0161507040D5
:100B900001900110D8F7809590958E0F9F1F0895B2
:100BA0000F931F93CF93DF93FB01238121FD03C09C
:100BB0008FEF9FEF2CC022FF16C046815781248102
:100BC00035814217530744F4A081B1819D012F5F05
:100BD0003F4F318320838C93268137812F5F3F4F96
:100BE0003783268314C08B01EC01FB010084F1855F
:100BF000E02D0995892BE1F6D80116968D919C91EF
:100C00001797019617969C938E931697CE01DF91B6
:100C1000CF911F910F910895FA01AA27283051F121
:100C2000203181F1E8946F936E7F6E5F7F4F8F4F1D
:100C30009F4FAF4FB1E03ED0B4E03CD0670F781F7C
:100C4000891F9A1FA11D680F791F8A1F911DA11D61
:100C50006A0F711D811D911DA11D20D009F468949A
:100C60003F912AE0269F11243019305D3193DEF642
:100C7000CF010895462F4770405D4193B3E00FD0F8
:100C8000C9F7F6CF462F4F70405D4A3318F0495DE3
:100C900031FD4052419302D0A9F7EACFB4E0A695C6
:100CA0009795879577956795BA95C9F700976105E8
:100CB000710508959B01AC010A2E0694579547953E
:100CC00037952795BA95C9F7620F731F841F951F33
:100CD000A01D0895DC01CB01FC01F999FECF06C0EF
:100CE000F2BDE1BDF89A319600B40D9241505040EA
:100CF000B8F70895DC01CB0103C02D910E94850651
:100D000041505040D0F70895262FF999FECF1FBAD1
:100D100092BD81BD20BD0FB6F894FA9AF99A0FBE24
:100D200001960895052E97FB1EF400940E94A906D3
:100D300057FD07D00E94FB0607FC03D04EF40C942D
:100D4000A90650954095309521953F4F4F4F5F4FE5
:100D5000089590958095709561957F4F8F4F9F4F27
:100D600008950E941D07A59F900DB49F900DA49F0C
:100D7000800D911D11240895B7FF0C94B1060E94B7
:100D8000B106821B930B08952F923F924F925F9270
:100D90006F927F928F929F92AF92BF92CF92DF928B
:100DA000EF92FF920F931F93CF93DF93CDB7DEB7F0
:100DB000CA1BDB0B0FB6F894DEBF0FBECDBF099484
:100DC0002A88398848885F846E847D848C849B84DB
:100DD000AA84B984C884DF80EE80FD800C811B81E9
:100DE000AA81B981CE0FD11D0FB6F894DEBF0FBE18
:100DF000CDBFED010895A1E21A2EAA1BBB1BFD0178
:100E00000DC0AA1FBB1FEE1FFF1FA217B307E407E9
:100E1000F50720F0A21BB30BE40BF50B661F771F41
:100E2000881F991F1A9469F7609570958095909521
:100E30009B01AC01BD01CF010895A29FB001B39FFA
:100E4000C001A39F700D811D1124911DB29F700DD3
:0C0E5000811D1124911D0895F894FFCF1E
:100E5C000100000000316253C4F5A697B988DBEAA3
:100E6C007D4C1F2E4372211087B6E5D4FACB98A97E
:100E7C003E0F5C6D86B7E4D5427320113F0E5D6C5E
:100E8C00FBCA99A8C5F4A796013063527C4D1E2F5E
:100E9C00B889DAEB3D0C5F6EF9C89BAA84B5E6D72E
:100EAC00407122137E4F1C2DBA8BD8E9C7F6A5943E
:100EBC0003326150BB8AD9E87F4E1D2C023360513E
:100ECC00C6F7A495F8C99AAB3C0D5E6F417023121E
:100EDC0085B4E7D67A4B1829BE8FDCEDC3F2A1900E
:100EEC000736655439085B6AFDCC9FAE80B1E2D3FE
:100EFC0044752617FCCD9EAF38095A6B45742716DE
:100F0C0081B0E3D2BF8EDDEC7B4A192806376455DD
:100F1C00C2F3A0914776251483B2E1D0FECF9CADED
:100F2C003A0B586904356657C0F1A293BD8CDFEEBD
:100F3C0079481B2AC1F0A3920534675678491A2BBD
:100F4C00BC8DDEEF82B3E0D1467724153B0A59689D
:100F5C00FFCE9DAC436865636B73756D20696E76CF
:100F6C00616C6964212100256400454550524F4D48
:100F7C003A200044756D6D79206368616E67656415
:100F8C0021004352433A200052616E646F6D3A2047
:020F9C00000053
:00000001FF
