S012000052696E676275666665722E7372656308
S11300000C943A000C9457000C9457000C9457002D
S11300100C9457000C9457000C9457000C94570000
S11300200C9457000C9457000C9457000C945700F0
S11300300C9457000C9457000C9457000C945700E0
S11300400C9457000C9457000C9457000C945700D0
S11300500C9457000C9457000C9457000C945700C0
S11300600C9457000C9457006364696E6F70737539
S113007078585B0011241FBECFEFD8E0DEBFCDBFA0
S113008016E0A0E0B1E0E8EAF0E102C005900D92CC
S1130090AC3FB107D9F727E0ACEFB6E001C01D9241
S11300A0AF30B207E1F70E9459000C9452080C9447
S11300B00000CF93DF931F92CDB7DEB70E94E60115
S11300C00E94A900CE0101960E94DF0089811F923F
S11300D08F9380E091E09F938F930E9413020E947C
S11300E0FF010E94DD0180E090E00F900F900F90DF
S11300F00F900F90DF91CF910895FC012081318101
S11301002F5F3F4F318320832150374029F020F067
S11301108CEF96E0918380830895ECEFF6E0F6830C
S1130120E583F087E78385E090E0A0E0B0E0818795
S11301309287A387B48780E090E007C0FC01E45075
S1130140F94F20E3280F2083019685309105B4F3FD
S113015008950E948D0008958091050790910607E7
S1130160A0910707B091080781FF09C080618093BF
S1130170050790930607A0930707B0930807ECEFD1
S1130180F6E025813681878190852817390749F45F
S113019081859285A385B485826081879287A387B0
S11301A0B487ECEFF6E081859285A385B485BC0124
S11301B0CD01637F61877287838794870895CF9386
S11301C0DF934091050750910607609107077091EE
S11301D0080742FD30C0EC0183E097E00E947D00F7
S11301E0ECEFF6E0A781B0858C91888381859285B8
S11301F0A385B4858D7F81879287A387B487458142
S11302005681278130854217530749F484608093CF
S1130210050790930607A0930707B0930807ECEF30
S1130220F6E081859285A385B485877E8187928750
S1130230A387B48709C04860409305075093060715
S1130240609307077093080760910507709106078C
S11302508091070790910807DF91CF9108956091ED
S11302600507709106078091070790910807089584
S1130270CF93C62F60FF04C08AE091E00E94290258
S1130280C1FF04C083E291E00E942902C2FF04C0BE
S11302908EE391E00E942902C3FF04C08AE591E045
S11302A00E942902C4FF04C087E791E00E9429024A
S11302B0CF910895CF93DF931F92CDB7DEB786E930
S11302C091E00E94290282EA91E00E94290284EBD3
S11302D091E00E94290283EC91E00E94290282EDC0
S11302E091E00E94290284EE91E00E942902CE014D
S11302F001969F938F938EEE91E09F938F930E942C
S113030059020F900F900F900F908981833379F1E8
S113031028F4813349F0823371F042C08433D9F137
S1130320883509F444C03CC00E942F010E94380162
S113033080E090E03EC082EF91E09F938F930E9413
S11303401302CE0101969F938F938EEE91E09F93BB
S11303508F930E94590289810E94AC000F900F90E4
S11303600F900F900F900F9080E090E022C0CE018C
S113037001960E94DF0089811F928F938FEF91E095
S11303809F938F930E9413020F900F900F900F90E2
S113039080E090E00EC00E948D0080E090E009C0F3
S11303A085E192E00E94290280E090E002C08FEF94
S11303B09FEF0F90DF91CF9108950E948D000E94CE
S11303C05A010196E1F780E090E00895E1ECF0E055
S11303D0808188618083E2ECF0E0808186608083A4
S11303E087E68093C4001092C5000895FC019091A3
S11303F0C00095FFFCCF80818093C60008950F93C1
S11304001F93CF938C01C0E003C00E94F601CF5F1D
S1130410C8018C0F911DFC0120812111F6CFCF91D1
S11304201F910F910895A0E0B0E0E9E1F2E00C948F
S11304302B08AE014B5F5F4FFA0161917191AF01DF
S113044080910B0790910C070E946F02E2E00C94DC
S113045047080F931F93CF93DF93E0910B07F0911D
S11304600C07238121FF1BC08C01D0E0C0E0F80100
S113047081918F0160910B0770910C07DB01189635
S1130480ED91FC911997882331F00995892B79F323
S1130490DFEFCFEFECCF8AE00995892B19F08FEFCE
S11304A09FEF02C08D2F9C2FDF91CF911F910F9151
S11304B00895A0E0B0E0EFE5F2E00C942B08AE0163
S11304C04B5F5F4FFA0161917191AF018091090710
S11304D090910A070E94EC05E2E00C944708ABE017
S11304E0B0E0E5E7F2E00C941B086C017B018A01A3
S11304F0FC0117821682838181FFCCC1CE01019653
S11305003C01F6019381F70193FD859193FF81915D
S11305107F01882309F4BAC1853239F493FD8591AA
S113052093FF81917F01853229F4B60190E00E9406
S11305306507E7CF912C212C312CFFE1F315D8F07E
S11305408B3279F038F4803279F08332A1F4232DA0
S113055020611DC08D3261F0803369F4232D216048
S113056016C0832D8260382EE32DE4603E2E2AC00F
S1130570F32DF8601DC037FC2DC020ED280F2A3064
S113058040F08E32B9F436FC81C1232D2064322E22
S113059019C036FE06C08AE0989E200D1124922EC2
S11305A011C0EAE02E9E200D1124222EF32DF062BC
S11305B03F2E08C08C3621F4832D8068382E02C06B
S11305C0883641F4F70193FD859193FF81917F0172
S11305D08111B3CF982F9F7D9554933028F40C5FED
S11305E01F4F9FE399830DC0833631F0833771F039
S11305F0833509F059C021C0F801808189830E5FD9
S11306001F4F88248394912C530113C02801F2E0D6
S11306104F0E511CF801A080B18036FE03C0692D35
S113062070E002C06FEF7FEFC5010E941C074C0110
S11306308201F32DFF773F2E16C0280122E0420EDF
S1130640511CF801A080B18036FE03C0692D70E012
S113065002C06FEF7FEFC5010E9411074C01F32D1B
S1130660F0683F2E820133FC1BC0822D90E0881677
S11306709906B0F4B60180E290E00E9465072A94DE
S1130680F4CFF50137FC859137FE81915F01B60106
S113069090E00E94650721102A9421E0821A9108B3
S11306A08114910471F7E8C0843611F0893641F55C
S11306B0F80137FE07C060817181828193810C5FEC
S11306C01F4F08C060817181072E000C880B990BA5
S11306D00E5F1F4FF32DFF763F2E97FF09C09095B5
S11306E08095709561957F4F8F4F9F4FF0683F2E97
S11306F02AE030E0A3010E94BA07882E861845C07C
S1130700853731F4232D2F7EB22E2AE030E025C028
S1130710932D997FB92E8F36C1F018F4883579F06E
S1130720B5C0803719F0883721F0B0C0E92FE061F7
S1130730BE2EB4FE0DC0FB2DF460BF2E09C034FEE6
S11307400AC0292F2660B22E06C028E030E005C07A
S113075020E130E002C020E132E0F801B7FE07C03A
S113076060817181828193810C5F1F4F06C060811B
S1130770718180E090E00E5F1F4FA3010E94BA07D1
S1130780882E8618FB2DFF773F2E36FE0DC0232DB5
S11307902E7FA22E891458F434FE0BC032FC09C0FB
S11307A0832D8E7EA82E05C0B82CA32C03C0B82C94
S11307B001C0B92CA4FE0FC0FE01E80DF11D80811B
S11307C0803321F49A2D997EA92E09C0A2FE06C079
S11307D0B394B39404C08A2D867809F0B394A3FC2F
S11307E011C0A0FE06C0B21488F4280C922C9B18E9
S11307F00EC0B21460F4B60180E290E00E94650776
S1130800B394F7CFB21418F42B1802C0982C212CEF
S1130810A4FE10C0B60180E390E00E946507A2FE2A
S113082017C0A1FC03C088E790E002C088E590E00F
S1130830B6010CC08A2D867859F0A1FE02C08BE265
S113084001C080E2A7FC8DE2B60190E00E9465073A
S1130850891438F4B60180E390E00E9465079A9405
S1130860F7CF8A94F301E80DF11D8081B60190E081
S11308700E9465078110F5CF222009F442CEB6010B
S113088080E290E00E9465072A94F6CFF601868103
S1130890978102C08FEF9FEF2B96E2E10C9437080B
S11308A020FD09C0FC0123FD05C022FF02C07383A3
S11308B0628351834083089544FD17C046FD17C0E9
S11308C0AB01BC01DA01FB01AA0FBB1FEE1FFF1F26
S11308D01094D1F74A0F5B1F6E1F7F1FCB01BA0123
S11308E0660F771F881F991F09C033E001C034E0E9
S11308F0660F771F881F991F3150D1F7620F711D42
S1130900811D911D08950F931F93CF93DF938C0145
S1130910C8010E942707EC0197FD08C00E94FD064C
S1130920892BB1F7B801CE010E94A107CE01DF9156
S1130930CF911F910F9108958F929F92AF92BF9282
S1130940EF92FF920F931F93CF93DF938C01D62FD7
S11309507A01B22E0E9427079C0133272B323105DE
S113096031F02D32310561F48B2D8068B82ED150D1
S113097011F480E068C0C8010E94270797FDF9CFF1
S1130980CB2DCD7F2B2D207309F58033F9F4AA24C8
S1130990AA94AD0E09F443C0C8010E94270797FD2D
S11309A03EC09C012F7D33272835310549F4C264AC
S11309B0D250A9F1C8010E94270797FF07C02FC092
S11309C0B6FE02C0C26001C0C261DA2D812C912C36
S11309D0540120ED280F283080F0C4FF04C0B80172
S11309E00E94A10719C02A3040F0C6FFF8CF2F7D1E
S11309F03FEE320F363098F727504C2FC501B40123
S1130A000E945C044B015C01C260D15059F0C801E2
S1130A100E94270797FFDDCFC1FD04C0AACF812C18
S1130A20912C5401C7FF08C0B094A0949094809472
S1130A30811C911CA11CB11C2C2FB501A401C70160
S1130A400E94500481E0DF91CF911F910F91FF909C
S1130A50EF90BF90AF909F908F900895A0E2B0E088
S1130A60E4E3F5E00C941E085C01962E7A01F9018A
S1130A708E010F5F1F4F680180E2D8011D928A9595
S1130A80E9F7D50113968C9080E090E0612C712CED
S1130A9030E061E070E083FC259183FE21918F01B9
S1130AA0522E211103C080E090E092C02E3511F443
S1130AB0009751F1432F50E0481759073CF42D3566
S1130AC059F12D3219F4772009F103C0772009F484
S1130AD06AC0452D469546954695D601A40FB11D8D
S1130AE0452D47708B0102C0000F111F4A95E2F794
S1130AF0A8015C91452B4C93651459F0561410F4DD
S1130B005394E7CF5A94E5CF31E004C0772473942B
S1130B1001C0712C0196BFCF772019F08E818062BD
S1130B208E83311103C08824839417C0F6019E017B
S1130B302F5D3F4F8081809581932E173F07D1F71A
S1130B40F2CFE114F10429F0D7018C93F701319627
S1130B507F019A94812C9920F9F0C5010E942707FE
S1130B6097FD18C0FC01FF2723E0F595E7952A952A
S1130B70E1F7EC0DFD1D208130E0AC0147705527F5
S1130B8002C0359527954A95E2F720FDDACFB501E5
S1130B900E94A107811087CFE114F10411F0D7015D
S1130BA01C92C80115C0422F469546954695D6011C
S1130BB0A40FB11D422F47708B0102C0000F111FFB
S1130BC04A95E2F7A8015C91452B4C93622EA2CF83
S1130BD0A096EFE00C943A08A0E0B0E0E2EFF5E074
S1130BE00C941E086C01EB015A01FC011782168259
S1130BF0512CF601E380FE01E3FC8591E3FE819133
S1130C00182FEF01882309F4EEC090E00E94FD063E
S1130C10892B21F0C6010E948304EBCF153241F4E5
S1130C20FE01E3FC1591E3FE1191EF01153281F40D
S1130C30C6010E94270797FDD4C0412F50E09C01B4
S1130C40332724173507A9F2B6010E94A107CBC0A8
S1130C501A3239F4E3FC1591E3FE1191EF0101E03E
S1130C6001C000E0F12C20ED210F2A3080F4026055
S1130C706F2D70E080E090E040E20E945C04F62E6C
S1130C80FE01E3FC1591E3FE1191EF01ECCF01FFAE
S1130C9003C0F11003C0A7C0FF24FA94183619F05A
S1130CA01C3651F010C0FE01E3FC1591E3FE1191D6
S1130CB0EF01183641F408600460FE01E3FC15916D
S1130CC0E3FE1191EF01112309F48DC0612F70E04F
S1130CD088E690E00E940607892B09F484C000FD91
S1130CE007C0F50180809180C50102965C0102C0B5
S1130CF0812C912C1E3651F4F6014681578160E017
S1130D0070E0202FC4010E94500473CF1336A9F45D
S1130D1001FD02C0FF24F394C6010E94270797FD3A
S1130D2060C08114910429F0F4018083C401019608
S1130D304C01FA94F110F0CF50C01B3559F49E01C8
S1130D40A4016F2DC6010E942E05EC01892B09F028
S1130D5044C03EC0C6010E94830497FD42C01F36B2
S1130D6061F128F4143639F1193651F128C01337DA
S1130D7071F0153701F123C08114910429F0F401B5
S1130D806082C40101964C01FA94FF2071F0C601FF
S1130D900E9427073C0197FD08C00E94FD06892B8D
S1130DA059F3B601C3010E94A10781149104A9F06B
S1130DB0F401108212C0006203C0006101C000642B
S1130DC0202FA4016F2DC6010E949C04811105C02F
S1130DD0F6018381807329F406C000FD0ACF539481
S1130DE008CF552019F0852D90E002C08FEF9FEFBA
S1130DF0CDB7DEB7EFE00C943A0891110C941808C3
S1130E00803219F089508550C8F70895FC01059087
S1130E10061621F00020D9F7C00108953197CF01BB
S1130E200895FC010590615070400110D8F7809539
S1130E3090958E0F9F1F0895FC01615070400190A2
S1130E400110D8F7809590958E0F9F1F0895CF932A
S1130E50DF93EC012B8120FF33C026FF0AC02F7BD8
S1130E602B838E819F8101969F838E838A8190E05C
S1130E7029C022FF0FC0E881F9818081082E000C6F
S1130E80990B009719F420622B831AC03196F983C9
S1130E90E8830EC0EA85FB85099597FF09C02B817D
S1130EA0019611F080E201C080E1822B8B8308C09F
S1130EB02E813F812F5F3F4F3F832E83992702C0AE
S1130EC08FEF9FEFDF91CF9108950F931F93CF93EF
S1130ED0DF93FB01238121FD03C08FEF9FEF2CC023
S1130EE022FF16C04681578124813581421753075A
S1130EF044F4A081B1819D012F5F3F4F3183208352
S1130F008C93268137812F5F3F4F3783268314C00C
S1130F108B01EC01FB010084F185E02D0995892BFF
S1130F20E1F6D80116968D919C9117970196179624
S1130F309C938E931697CE01DF91CF911F910F91C1
S1130F400895FB01238120FF12C026FD10C08F3FAE
S1130F503FEF930761F082832F7D206423832681F2
S1130F6037812150310937832683992708958FEFDC
S1130F709FEF0895FA01AA27283051F1203181F119
S1130F80E8946F936E7F6E5F7F4F8F4F9F4FAF4F8D
S1130F90B1E03ED0B4E03CD0670F781F891F9A1FA0
S1130FA0A11D680F791F8A1F911DA11D6A0F711D54
S1130FB0811D911DA11D20D009F468943F912AE060
S1130FC0269F11243019305D3193DEF6CF01089548
S1130FD0462F4770405D4193B3E00FD0C9F7F6CF79
S1130FE0462F4F70405D4A3318F0495D31FD405241
S1130FF0419302D0A9F7EACFB4E0A69597958795D7
S113100077956795BA95C9F70097610571050895B5
S11310109B01AC010A2E0694579547953795279561
S1131020BA95C9F7620F731F841F951FA01D0895F9
S11310309927882708952F923F924F925F926F923B
S11310407F928F929F92AF92BF92CF92DF92EF9254
S1131050FF920F931F93CF93DF93CDB7DEB7CA1BD5
S1131060DB0B0FB6F894DEBF0FBECDBF09942A8800
S1131070398848885F846E847D848C849B84AA84A8
S1131080B984C884DF80EE80FD800C811B81AA8135
S1131090B981CE0FD11D0FB6F894DEBF0FBECDBF00
S10B10A0ED010895F894FFCF5F
S11310A8446174613A2025640A00546865205249F1
S11310B842555F4F4B20666C6167206973207365E6
S11310C874200054686520524942555F46554C4C7B
S11310D820666C6167206973207365742000546806
S11310E86520524942555F454D50545920666C61FC
S11310F86720697320736574200054686520524919
S113110842555F4E4F4441544120666C61672069E3
S11311187320736574200054686520524942555FF2
S1131128444154414C4F535420666C6167206973A1
S11311382073657420005768617420746F20646F8D
S11311483F0031202E2E207072696E7420737461F2
S11311587475730032202E2E207075742076616C9D
S113116875650033202E2E206765742076616C75B2
S1131178650034202E2E20666C75736820627566AF
S11311886665720058202E2E206558697400202543
S11311986300676976652076616C75653A20005648
S11311A8616C75652066726F6D20726962753A208C
S11311B82563200A0054727920616761696E2100F1
S11311C8546573744361736520313A20696E697498
S11311D8205374617465206E6F7420656D70747922
S11311E8212000546573744361736520313A206982
S11311F86E6974205374617465206E6F2064617421
S113120861206269742021200054657374436173FA
S11312186520323A204572726F72202D205249425D
S113122855207374696C6C20656D70747921200085
S1131238546573744361736520323A204572726F42
S113124872202D20524942552066756C6C2120006D
S1131258546573744361736520323A204572726F22
S113126872202D2044617461206C6F7374212000F6
S1131278546573744361736520323A204572726F02
S113128872202D205374617465206E6F206461741C
S1131298612062697420212000546573744361736A
S11312A86520323A204572726F72202D2053746182
S11312B87465206E6F7420656D70747921200054F4
S11312C86573744361736520323A204572726F7294
S11312D8202D206461746120646F206E6F74206D0A
S11312E861746368212000546573744361736520D5
S11312F8333A204572726F7220507574202D205233
S1131308494255207374696C6C20656D707479203A
S113131828693D25642921200A00546573744361B2
S1131328736520333A204572726F722050757420A9
S11313382D20524942552066756C6C2028693D253C
S1131348642921200A00546573744361736520334A
S11313583A204572726F7220507574202D205249BC
S11313684255204E4F542066756C6C2028693D25E3
S1131378642921200A00546573744361736520331A
S11313883A204572726F7220507574202D20446182
S11313987461206C6F73742028693D2564292120A9
S11313A80A00546573744361736520333A204572A7
S11313B8726F7220507574202D206E6F20646174D2
S11313C86120626974202120005465737443617339
S11313D86520333A204572726F7220476574202D58
S11313E8205249425520656D7074792028693D253D
S11313F8642921200A00546573744361736520339A
S11314083A204572726F7220476574202D20524924
S11314184255204E4F5420656D7074792028693DDB
S113142825642921200A0054657374436173652077
S1131438333A204572726F7220476574202D20520A
S11314484942552066756C6C2028693D256429211C
S1131458200A00546573744361736520333A204548
S113146872726F7220476574202D20446174612064
S11314786C6F73742028693D25642921200A00545F
S11314886573744361736520333A204572726F72D1
S113149820476574202D206E6F206461746120627A
S11314A86974202120005465737443617365203383
S11314B83A204572726F72202D2056616C756573DF
S11314C820646F206E6F74206D617463682120003E
S11314D8546573744361736520343A204572726F9E
S11314E87220507574202D20524942552073746916
S11314F86C6C20656D7074792028693D25642921F8
S1131508200A00546573744361736520343A204596
S113151872726F7220507574202D205249425520E2
S113152866756C6C2028693D25642921200A0054BD
S11315386573744361736520343A204572726F721F
S113154820507574202D2052494255204E4F542066
S113155866756C6C2028693D25642921200A00548D
S11315686573744361736520343A204572726F72EF
S113157820507574202D2044617461206C6F73743D
S11315882028693D25642921200A00546573744381
S113159861736520343A204572726F7220507574F5
S11315A8202D2044617461204E4F54206C6F737455
S11315B82028693D25642921200A00546573744351
S11315C861736520343A204572726F7220476574DE
S11315D8202D205249425520656D70747920286960
S11315E83D25642921200A00546573744361736599
S11315F820343A204572726F7220476574202D207A
S113160852494255204E4F5420656D7074792028F4
S1131618693D25642921200A005465737443617364
S11316286520343A204572726F7220476574202D04
S113163820524942552066756C6C2028693D256402
S11316482921200A00546573744361736520343A70
S1131658204572726F7220476574202D204461748E
S113166861206C6F73742028693D25642921200A40
S113167800546573744361736520343A204572726B
S11316886F72202D2056616C75657320646F206E0F
S10F16986F74206D6174636821200000F1
S9030000FC
