:100000000C9434000C9451000C9451000C94510049
:100010000C940B020C9451000C9451000C94510060
:100020000C9451000C9451000C9451000C9451000C
:100030000C9451000C9451000C9451000C945100FC
:100040000C9451000C9451000C9451000C945100EC
:100050000C9451000C9451000C9451000C945100DC
:100060000C9451000C94510011241FBECFEFD8E026
:10007000DEBFCDBF11E0A0E0B1E0E8E4F4E002C0F3
:1000800005900D92A631B107D9F721E0A6E1B1E0C4
:1000900001C01D92A831B207E1F70E94B1010C9492
:1000A00022020C94000088B1846088B985E08A95AA
:1000B000F1F7000088B18B7F88B90895CF93C82FDE
:1000C000662321F088B1816088B903C088B18E7F32
:1000D00088B988B18D7F88B98AB184608AB98AB1BC
:1000E00088608AB98AB180618AB98AB180628AB926
:1000F0008BB18F7D8BB98BB18F7E8BB98BB1877FA5
:100100008BB98BB18B7F8BB9CC231CF48BB1806204
:100110008BB9C6FF03C08BB180618BB9C5FF03C02B
:100120008BB188608BB9C4FF03C08BB184608BB97D
:100130000E9453008BB18F7D8BB98BB18F7E8BB9B1
:100140008BB1877F8BB98BB18B7F8BB9C3FF03C01A
:100150008BB180628BB9C2FF03C08BB180618BB958
:10016000C1FF03C08BB188608BB9C0FF03C08BB1E6
:1001700084608BB90E9453008BB184608BB98BB1C2
:1001800088608BB98BB180618BB98BB180628BB980
:10019000CF910895882321F088B1816088B903C088
:1001A00088B18E7F88B988B1826088B98AB18B7F27
:1001B0008AB98AB1877F8AB98AB18F7E8AB98AB1B2
:1001C0008F7D8AB988B1846088B985E08A95F1F716
:1001D00000004A9902C080E001C080E14B99806232
:1001E0004C9980644D99806898B19B7F98B995E04F
:1001F0009A95F1F7000098B1946098B995E09A95B6
:10020000F1F700004A9981604B9982604C998460B3
:100210004D99886098B19B7F98B9089580E00E94BD
:10022000CA008823DCF385E18A95F1F7000080E0BD
:100230000E94CA000895CF93C82F0E940E0160E06B
:100240008C2F0E945E00CF91089581E00E941B01D7
:100250000895CF93C82F0E940E01CA3049F480340C
:1002600010F480E401C080E080580E941B0104C0AB
:1002700061E08C2F0E945E00CF910895CF93DF93B1
:10028000FC0103C00E942901FE01EF01219680813B
:100290008111F8CFDF91CF910895CF93C82F87B107
:1002A000816087B987B1826087B987B1846087B977
:1002B0008AB184608AB98AB188608AB98AB180615A
:1002C0008AB98AB180628AB98FEF99EF0197F1F705
:1002D00000C000008BB188608BB98BB184608BB992
:1002E0000E9453008FE19EE40197F1F700C00000E7
:1002F0000E9453008FEF90E00197F1F700C00000DB
:100300000E9453008FEF90E00197F1F700C00000CA
:100310008BB18B7F8BB90E9453008FEF90E00197D8
:10032000F1F700C0000088E20E941B0188E00E94F3
:100330001B010E94250186E00E941B018C2F0E9458
:100340001B01CF910895ECE6F0E080818860808306
:10035000808180618083E8E6F0E080818260808334
:10036000089578948CE00E944D010E94A3010E94A0
:10037000250180911601909117010197A1F58091B7
:10038000000190910101892BA1F00E94250182E0DA
:1003900091E00E943E012FEF8BE49DE121508040CF
:1003A0009040E1F700C0000010920101109200019E
:1003B00015C00E9425018CE091E00E943E012FEFC4
:1003C0008BE49DE1215080409040E1F700C00000A7
:1003D00081E090E090930101809300011092170159
:1003E000109216010EC0809116019091170102978C
:1003F00041F483E191E00E943E01109217011092B6
:1004000016012FEF83ED90E3215080409040E1F7FB
:1004100000C00000ACCF1F920F920FB60F921124B4
:100420008F939F93309B06C081E090E090931701DB
:100430008093160186B19F918F910F900FBE0F9000
:080440001F901895F894FFCFFE
:100448000100476F6F6420427965210048656C6C34
:060458006F21007400009A
:00000001FF
