:100000000C9434000C9449000C9449000C94490061
:100010000C9449000C9449000C9449000C9449003C
:100020000C9449000C9449000C9449000C9449002C
:100030000C9449000C9449000C9449000C9449001C
:100040000C9449000C9449000C9449000C9449000C
:100050000C9449000C9449000C9449000C944900FC
:100060000C9449000C94490011241FBECFEFD8E036
:10007000DEBFCDBF11E0A0E0B1E0EEE2F1E002C0F2
:1000800005900D92A630B107D9F70E944B000C9451
:1000900095000C940000CF93DF9300D0CDB7DEB76E
:1000A0000E945F0080E091E00E948100CE010196F5
:1000B0000E946F00CE0101960E947800F7CFE1EC1C
:1000C000F0E0808188618083E2ECF0E080818660EE
:1000D000808387E68093C4001092C5000895FC01D8
:1000E0009091C0009923E4F78091C6008083089521
:1000F000FC019091C00095FFFCCF80818093C600E9
:1001000008950F931F93CF938C01C0E003C00E940A
:100110007800CF5FC8018C0F911DFC012081211157
:0E012000F6CFCF911F910F910895F894FFCF65
:06012E0048616C6C6F00DB
:00000001FF
