S01700004763634170706C69636174696F6E312E737265635B
S11300000C9434000C943E000C943E000C943E007E
S11300100C943E000C943E000C943E000C943E0064
S11300200C943E000C943E000C943E000C943E0054
S11300300C943E000C943E000C943E000C943E0044
S11300400C943E000C943E000C943E000C943E0034
S11300500C943E000C943E000C943E000C943E0024
S11300600C943E000C943E0011241FBECFEFD8E048
S1130070DEBFCDBF0E9440000C94C1000C94000070
S11300808FEF8AB982E08BB92FEF8FE097E221508E
S113009080409040E1F700C000001BB82FEF80E7DC
S11300A092E0215080409040E1F700C0000084E0DD
S11300B08BB92FEF8FE097E2215080409040E1F719
S11300C000C000001BB82FEF80E792E02150804071
S11300D09040E1F700C0000088E08BB92FEF8FE07B
S11300E097E2215080409040E1F700C000001BB827
S11300F02FEF80E792E0215080409040E1F700C06C
S1130100000080E18BB92FEF8FE097E2215080400F
S11301109040E1F700C000001BB82FEF80E792E0A9
S1130120215080409040E1F700C0000080E28BB98C
S11301302FEF8FE097E2215080409040E1F700C01C
S113014000001BB82FEF80E792E0215080409040E0
S1130150E1F700C0000080E48BB92FEF8FE097E255
S1130160215080409040E1F700C000001BB82FEF01
S113017081EE94E0215080409040E1F700C00000FF
S109018081CFF894FFCFCB
S9030000FC
