S01300004C43445F446973706C61792E7372656309
S11300000C9434000C9451000C9451000C94510045
S11300100C94EB010C9451000C9451000C9451007D
S11300200C9451000C9451000C9451000C94510008
S11300300C9451000C9451000C941F020C94510028
S11300400C9451000C9451000C9451000C945100E8
S11300500C9451000C9451000C9451000C945100D8
S11300600C9451000C94510011241FBECFEFD8E022
S1130070DEBFCDBF11E0A0E0B1E0ECE6FAE002C0E3
S113008005900D92A630B107D9F721E0A6E0B1E0C2
S113009001C01D92AA30B207E1F70E9493010C94AB
S11300A034050C94000088B1846088B9000088B1DC
S11300B08B7F88B90895CF93C82F662321F088B128
S11300C0816088B903C088B18E7F88B988B18D7F7B
S11300D088B98AB184608AB98AB188608AB98AB1D8
S11300E080618AB98AB180628AB98BB18F7D8BB9FC
S11300F08BB18F7E8BB98BB1877F8BB98BB18B7FA3
S11301008BB9CC231CF48BB180628BB9C6FF03C0BE
S11301108BB180618BB9C5FF03C08BB188608BB98B
S1130120C4FF03C08BB184608BB90E9453008BB1B0
S11301308F7D8BB98BB18F7E8BB98BB1877F8BB958
S11301408BB18B7F8BB9C3FF03C08BB180628BB93A
S1130150C2FF03C08BB180618BB9C1FF03C08BB1F7
S113016088608BB9C0FF03C08BB184608BB90E94D7
S113017053008BB184608BB98BB188608BB98BB120
S113018080618BB98BB180628BB9CF91089588233C
S113019021F088B1816088B903C088B18E7F88B9A5
S11301A088B1826088B98AB18B7F8AB98AB1877F26
S11301B08AB98AB18F7E8AB98AB18F7D8AB988B1AA
S11301C0846088B900004A9902C080E001C080E1DF
S11301D04B9980624C9980644D99806898B19B7F5B
S11301E098B9000098B1946098B900004A99816068
S11301F04B9982604C9984604D99886098B19B7F3B
S113020098B9089580E00E94C7008823DCF300C0F9
S113021000C080E00E94C7000895CF93C82F0E94B9
S1130220020160E08C2F0E945B00CF91089581E071
S11302300E940D01089582E00E940D010895CF935C
S1130240C82F0E940201CA3049F4803410F480E4BB
S113025001C080E080580E940D0104C061E08C2F31
S11302600E945B00CF910895CF93DF93FC0103C0FC
S11302700E941F01FE01EF01219680818111F8CFB8
S1130280DF91CF910895CF93C82F87B1816087B94B
S113029087B1826087B987B1846087B98AB1846085
S11302A08AB98AB188608AB98AB180618AB98AB107
S11302B080628AB98FE99FE00197F1F700C00000DE
S11302C08BB188608BB98BB184608BB90E94530069
S11302D081EE94E00197F1F700C000000E94530002
S11302E095E19A95F1F700000E94530085E18A9503
S11302F0F1F700008BB18B7F8BB90E94530095E11D
S11303009A95F1F7000088E20E940D0188E00E94AE
S11303100D010E94170186E00E940D018C2F0E949E
S11303200D01CF910895CF93DF93CDB7DEB76097DA
S11303300FB6F894DEBF0FBECDBF8CE00E94430120
S11303400E941B01ECE6F0E0808188608083E8E68F
S1130350F0E080818260808384B5826084BD85B54D
S1130360836085BD8AEF87BDEEE6F0E08081826020
S11303708083789480910001909101010197D1F7D5
S11303800E9417018091060190910701A091080134
S1130390B0910901BF93AF939F938F9382E091E053
S11303A09F938F938E010F5F1F4F1F930F930E9494
S11303B04A02C8010E9434012FEF83EC99E02150D6
S11303C080409040E1F700C000000FB6F894DEBF13
S11303D00FBECDBFCFCF1F920F920FB60F92112435
S11303E02F938F939F93339B22C080910001909110
S11303F00101892B39F481E090E09093010180930D
S113040000010CC01092010110920001109206012B
S11304101092070110920801109209012FEF83EC4A
S113042099E0215080409040E1F700C000009F9186
S11304308F912F910F900FBE0F901F9018951F92C0
S11304400F920FB60F9211248F939F93AF93BF9384
S11304508091000190910101019799F48091060126
S113046090910701A0910801B09109010196A11D85
S1130470B11D8093060190930701A0930801B093E6
S11304800901BF91AF919F918F910F900FBE0F9073
S11304901F901895AEE0B0E0E0E5F2E00C940B0597
S11304A00D891E8986E08C831A8309838FEF9FE769
S11304B09E838D83AE01475E5F4F6F89788DCE0139
S11304C001960E946C02EF81F885E00FF11F108203
S11304D02E96E4E00C942705ABE0B0E0E2E7F2E00E
S11304E00C94FD046C017B018A01FC0117821682C5
S11304F0838181FFCCC1CE0101963C01F601938139
S1130500F70193FD859193FF81917F01882309F47D
S1130510BAC1853239F493FD859193FF81917F01AE
S1130520853229F4B60190E00E946304E7CF912C50
S1130530212C312CFFE1F315D8F08B3279F038F40B
S1130540803279F08332A1F4232D20611DC08D32D5
S113055061F0803369F4232D216016C0832D8260FD
S1130560382EE32DE4603E2E2AC0F32DF8601DC022
S113057037FC2DC020ED280F2A3040F08E32B9F41C
S113058036FC81C1232D2064322E19C036FE06C0EC
S11305908AE0989E200D1124922E11C0EAE02E9E2E
S11305A0200D1124222EF32DF0623F2E08C08C362C
S11305B021F4832D8068382E02C0883641F4F70177
S11305C093FD859193FF81917F018111B3CF982F82
S11305D09F7D9554933028F40C5F1F4F9FE39983BC
S11305E00DC0833631F0833771F0833509F059C07B
S11305F021C0F801808189830E5F1F4F8824839472
S1130600912C530113C02801F2E04F0E511CF80144
S1130610A080B18036FE03C0692D70E002C06FEF88
S11306207FEFC5010E9458044C018201F32DFF772E
S11306303F2E16C0280122E0420E511CF801A08072
S1130640B18036FE03C0692D70E002C06FEF7FEF0A
S1130650C5010E944D044C01F32DF0683F2E820128
S113066033FC1BC0822D90E088169906B0F4B601C5
S113067080E290E00E9463042A94F4CFF50137FCF1
S1130680859137FE81915F01B60190E00E94630479
S113069021102A9421E0821A91088114910471F79F
S11306A0E8C0843611F0893641F5F80137FE07C0F9
S11306B060817181828193810C5F1F4F08C06081CA
S11306C07181072E000C880B990B0E5F1F4FF32DC1
S11306D0FF763F2E97FF09C09095809570956195A0
S11306E07F4F8F4F9F4FF0683F2E2AE030E0A301E9
S11306F00E949F04882E861845C0853731F4232D27
S11307002F7EB22E2AE030E025C0932D997FB92E9A
S11307108F36C1F018F4883579F0B5C0803719F0F8
S1130720883721F0B0C0E92FE061BE2EB4FE0DC0C1
S1130730FB2DF460BF2E09C034FE0AC0292F2660A9
S1130740B22E06C028E030E005C020E130E002C04F
S113075020E132E0F801B7FE07C060817181828137
S113076093810C5F1F4F06C06081718180E090E02F
S11307700E5F1F4FA3010E949F04882E8618FB2D35
S1130780FF773F2E36FE0DC0232D2E7FA22E891417
S113079058F434FE0BC032FC09C0832D8E7EA82E83
S11307A005C0B82CA32C03C0B82C01C0B92CA4FEDE
S11307B00FC0FE01E80DF11D8081803321F49A2DD4
S11307C0997EA92E09C0A2FE06C0B394B39404C0B6
S11307D08A2D867809F0B394A3FC11C0A0FE06C04C
S11307E0B21488F4280C922C9B180EC0B21460F436
S11307F0B60180E290E00E946304B394F7CFB21490
S113080018F42B1802C0982C212CA4FE10C0B60199
S113081080E390E00E946304A2FE17C0A1FC03C021
S113082088E790E002C088E590E0B6010CC08A2D0C
S1130830867859F0A1FE02C08BE201C080E2A7FCD9
S11308408DE2B60190E00E946304891438F4B60185
S113085080E390E00E9463049A94F7CF8A94F301B2
S1130860E80DF11D8081B60190E00E9463048110BF
S1130870F5CF222009F442CEB60180E290E00E9436
S113088063042A94F6CFF6018681978102C08FEF24
S11308909FEF2B96E2E10C941905FC010590615041
S11308A070400110D8F7809590958E0F9F1F089582
S11308B0FC016150704001900110D8F7809590952B
S11308C08E0F9F1F08950F931F93CF93DF93FB0108
S11308D0238121FD03C08FEF9FEF2CC022FF16C0A0
S11308E046815781248135814217530744F4A081FE
S11308F0B1819D012F5F3F4F318320838C932681EB
S113090037812F5F3F4F3783268314C08B01EC015F
S1130910FB010084F185E02D0995892BE1F6D801CE
S113092016968D919C911797019617969C938E938A
S11309301697CE01DF91CF911F910F910895FA017F
S1130940AA27283051F1203181F1E8946F936E7F0A
S11309506E5F7F4F8F4F9F4FAF4FB1E03ED0B4E0FB
S11309603CD0670F781F891F9A1FA11D680F791F3C
S11309708A1F911DA11D6A0F711D811D911DA11D4D
S113098020D009F468943F912AE0269F112430195D
S1130990305D3193DEF6CF010895462F4770405DF8
S11309A04193B3E00FD0C9F7F6CF462F4F70405DA7
S11309B04A3318F0495D31FD4052419302D0A9F702
S11309C0EACFB4E0A6959795879577956795BA95FC
S11309D0C9F700976105710508959B01AC010A2EC2
S11309E006945795479537952795BA95C9F7620F99
S11309F0731F841F951FA01D08952F923F924F923D
S1130A005F926F927F928F929F92AF92BF92CF929A
S1130A10DF92EF92FF920F931F93CF93DF93CDB7A3
S1130A20DEB7CA1BDB0B0FB6F894DEBF0FBECDBF1B
S1130A3009942A88398848885F846E847D848C84EC
S1130A409B84AA84B984C884DF80EE80FD800C81F5
S1130A501B81AA81B981CE0FD11D0FB6F894DEBFD8
S10F0A600FBECDBFED010895F894FFCF48
S1090A6C010025640000F6
S9030000FC
