S01200004D656173757265426F742E737265631B
S11300000C94B1000C94CE000C94CE000C94CE0051
S11300100C9473050C94CE000C94CE000C94CE007A
S11300200C94CE000C94CE000C94CE000C94CE0014
S11300300C94CE000C94CE000C9492050C94CE003B
S11300400C94CE000C94CE000C94D0050C94FE05B8
S11300500C94CE000C943B050C94CE000C94CE0072
S11300600C94CE000C94CE0000407A10F35A00A0F9
S1130070724E18090010A5D4E80000E8764817006D
S113008000E40B54020000CA9A3B000000E1F505AD
S1130090000080969800000040420F000000A086F7
S11300A001000000102700000000E8030000000029
S11300B06400000000000A000000000001000000CD
S11300C000002C76D888DC674F0823DFC1DFAE59E7
S11300D0E1B1B796E5E3E453C63AE651997696E87A
S11300E0E6C28426EB898C9B62ED407C6FFCEFBCFE
S11300F09C9F40F2BAA56FA5F490055A2AF75C9329
S11301006B6CF9676DC11BFCE0E40D47FEF520E65E
S1130110B500D0ED902E0300943577050080841E41
S1130120080000204E0A000000C80C333333330F9C
S1130130986E12831141EF8D2114893BE65516CF39
S1130140FEE6DB18D1844B381BF77C1D901DA4BB45
S1130150E424203284725E228100C9F124ECA1E5FA
S11301603D2711241FBECFEFD8E0DEBFCDBF12E084
S1130170A0E0B1E0EEEEFBE102C005900D92A239E1
S1130180B107D9F723E0A2E9B2E001C01D92A73478
S1130190B207E1F70E94C9020C94F50D0C9400001B
S11301A0ECE7F0E0808185648083EAE7F0E0808119
S11301B08F6880830895EAE7F0E08081806480831B
S11301C00895609178007091790080E090E00E9439
S11301D0EC070895DC01892B69F480E008959C9173
S11301E0E82FE927F0E0EE5FFE4F80812F5F3F4F5D
S11301F0119603C080E020E030E02617370778F33B
S1130200089549E050E060E070E08CE093E00E94E3
S1130210960D089568E070E08CE093E00E94EA0097
S11302208093140308950E940A0149E050E060E0BD
S113023070E08CE093E00E94A60D089568E070E001
S11302408CE093E00E94EA0090911403891303C0A8
S113025081E090E0089580E090E0089588B18460A2
S113026088B985E08A95F1F7000088B18B7F88B959
S11302700895CF93C82F662321F088B1816088B98F
S113028003C088B18E7F88B988B18D7F88B98AB15F
S113029084608AB98AB188608AB98AB180618AB96E
S11302A08AB180628AB98BB18F7D8BB98BB18F7E15
S11302B08BB98BB1877F8BB98BB18B7F8BB9CC23F7
S11302C01CF48BB180628BB9C6FF03C08BB1806113
S11302D08BB9C5FF03C08BB188608BB9C4FF03C061
S11302E08BB184608BB90E942E018BB18F7D8BB949
S11302F08BB18F7E8BB98BB1877F8BB98BB18B7FA1
S11303008BB9C3FF03C08BB180628BB9C2FF03C03A
S11303108BB180618BB9C1FF03C08BB188608BB98D
S1130320C0FF03C08BB184608BB90E942E018BB1D6
S113033084608BB98BB188608BB98BB180618BB9C8
S11303408BB180628BB9CF910895882321F088B155
S1130350816088B903C088B18E7F88B988B1826012
S113036088B98AB18B7F8AB98AB1877F8AB98AB101
S11303708F7E8AB98AB18F7D8AB988B1846088B941
S113038085E08A95F1F700004A9902C080E001C037
S113039080E14B9980624C9980644D99806898B152
S11303A09B7F98B995E09A95F1F7000098B1946015
S11303B098B995E09A95F1F700004A9981604B99B4
S11303C082604C9984604D99886098B19B7F98B9FC
S11303D0089580E00E94A5018823DCF385E18A95D5
S11303E0F1F7000080E00E94A5010895CF93C82F83
S11303F00E94E90160E08C2F0E943901CF91089599
S1130400611104C080580E94F601089580540E942E
S1130410F601089581E00E94F6010895CF93C82F54
S11304200E94E901CA3049F4803410F480E401C028
S113043080E080580E94F60104C061E08C2F0E9485
S11304403901CF910895CF93DF93FC0103C00E943B
S11304500E02FE01EF01219680818111F8CFDF9118
S1130460CF910895CF93C82F87B1816087B987B1A1
S1130470826087B987B1846087B98AB184608AB998
S11304808AB188608AB98AB180618AB98AB1806286
S11304908AB98FEF99EF0197F1F700C000008BB193
S11304A088608BB98BB184608BB90E942E018FE177
S11304B09EE40197F1F700C000000E942E018FEF27
S11304C090E00197F1F700C000000E942E018FEF29
S11304D090E00197F1F700C000008BB18B7F8BB9DE
S11304E00E942E018FEF90E00197F1F700C0000009
S11304F088E20E94F60188E00E94F6010E940A0246
S113050086E00E94F6018C2F0E94F601CF91089597
S1130510ECE6F0E080818860808380818061808364
S1130520E8E6F0E080818260808384B5826084BDE7
S113053085B5836085BD8AEF87BDEEE6F0E08081F6
S11305408260808308958CE00E9432020E940A0235
S113055082E092E00E9423022FEF8BE49DE1215080
S113056080409040E1F700C0000008950E940A0214
S113057089E092E00E9423022FEF8BE49DE1215059
S113058080409040E1F700C0000088E00E94320201
S11305900895CF93DF93CDB7DEB7C258D1090FB614
S11305A0F894DEBF0FBECDBF0E94A30278940E94D0
S11305B088020E94D00087E690E00E9428060E94EC
S11305C0DB000E9401010E941E01892B31F40E946C
S11305D00A0283E192E00E9423028AB180648AB90C
S11305E08091000190910101892B61F080919E021C
S11305F090919F02892B31F010929F0210929E02DB
S11306000E94DB0080919C0290919D020197D1F49D
S11306108091000190910101892B39F00E94B6026A
S1130620109201011092000108C00E94A30281E00F
S113063090E0909301018093000110929D0210922A
S11306409C021FC080919C0290919D020297C9F464
S11306508091000190910101892B99F0ECE0F3E085
S113066086819781019697838683059724F010925B
S11306701303109212030E94130110929D02109210
S11306809C028091000190910101892B09F421C100
S11306900E94D806892B09F41CC1CE018B599F4FA7
S11306A00E94580764E272E0CE018B599F4F0E946A
S11306B09A08892B09F044C06091A0027091A102AC
S11306C08091A2029091A3027E0129E7E20EF11C1F
S11306D0870120E030E043E050E00E947A088091F6
S11306E00001909101019F938F9388E292E09F9380
S11306F08F932AE232E03F932F9321E332E03F933A
S11307002F93FF92EF929F938F9383E392E09F93B3
S11307108F9381E492E09F938F9383E492E09F937D
S11307208F93085711091F930F930E94B108C801B2
S11307300E9483060FB6F894DEBF0FBECDBFC1C0C2
S113074067E572E0CE018B599F4F0E949A08892B6E
S113075011F581E090E090939302809392028DE6EC
S113076092E09F938F9381E492E09F938F938BE524
S113077092E09F938F938E010F5F1F4F1F930F93F0
S11307800E94B108C8010E9483060FB6F894DEBF28
S11307900FBECDBF96C063E672E0CE018B599F4F6A
S11307A00E949A08892B01F51092930210929202EA
S11307B08DE692E09F938F9381E492E09F938F93D1
S11307C08BE592E09F938F938E010F5F1F4F1F93D2
S11307D00F930E94B108C8010E9483060FB6F894D3
S11307E0DEBF0FBECDBF6DC044E050E067E672E0EF
S11307F0CE018B599F4F0E94A308892B09F046C054
S1130800AA968FADAA9790E0C0978530910510F510
S113081090931303809312030E9413018DE692E0D8
S11308209F938F9381E492E09F938F938BE592E063
S11308309F938F938E010F5F1F4F1F930F930E94FF
S1130840B108C8010E9483060FB6F894DEBF0FBE3C
S1130850CDBF37C08CE692E09F938F9381E492E002
S11308609F938F938BE592E09F938F938E010F5FFD
S11308701F4F1F930F930E94B108C8010E94830663
S11308800FB6F894DEBF0FBECDBF1BC08CE692E05E
S11308909F938F9381E492E09F938F938BE592E0F3
S11308A09F938F938E010F5F1F4F1F930F930E948F
S11308B0B108C8010E9483060FB6F894DEBF0FBECC
S11308C0CDBFFE01EB59FF4F84E1DF011D928A95F4
S11308D0E9F7F89481E07EC020911203309113036C
S11308E080E02115310509F475C0809100019091D3
S11308F00101892B09F46DC08091920290919302B9
S1130900892B09F466C048EE53E0249FC001259F5B
S1130910900D349F900D1124092E000CAA0BBB0BD3
S1130920409198025091990260919A0270919B02B1
S113093084179507A607B70708F04BC010929802D2
S11309401092990210929A0210929B026091A00256
S11309507091A1028091A2029091A3027E01B5E65A
S1130960EB0EF11C870120E030E043E050E00E94F0
S11309707A0880910001909101019F938F9388E2FE
S113098092E09F938F932AE232E03F932F9321E3E7
S113099032E03F932F93FF92EF929F938F9383E3E1
S11309A092E09F938F9381E492E09F938F9383E4EB
S11309B092E09F938F93045611091F930F930E9403
S11309C0B108C8010E9483060FB6F894DEBF0FBEBB
S11309D0CDBF80E0811180CF789480919402909172
S11309E09502A0919602B09197028C3D9540A10585
S11309F0B10508F4F5CD0E940A026091A00270913D
S1130A00A1028091A2029091A3028E010B591F4F63
S1130A1020E030E043E050E00E947A08C8010E94E0
S1130A20230280E792E00E94230261E080E00E94BA
S1130A300002ECE0F3E087818F9386818F9382E755
S1130A4092E09F938F93045611091F930F930E9472
S1130A50B108C8010E9423021092940210929502D8
S1130A6010929602109297020F900F900F900F9091
S1130A700F900F90B5CD1F920F920FB60F921124C5
S1130A802F933F934F935F936F937F938F939F9392
S1130A90AF93BF93EF93FF930E94E10020E030E017
S1130AA040E151E40E947A076093A0027093A1028E
S1130AB08093A2029093A30281E090E090939F021E
S1130AC080939E02FF91EF91BF91AF919F918F917F
S1130AD07F916F915F914F913F912F910F900FBE36
S1130AE00F901F9018951F920F920FB60F9211241A
S1130AF08F939F93339B07C081E090E090939D0276
S1130B0080939C0208C0349B06C082E090E09093DE
S1130B109D0280939C029F918F910F900FBE0F9026
S1130B201F9018951F920F920FB60F9211248F9356
S1130B309F93AF93BF938091920290919302892BDC
S1130B4099F08091980290919902A0919A02B091A3
S1130B509B020196A11DB11D809398029093990266
S1130B60A0939A02B0939B02809194029091950273
S1130B70A0919602B09197020196A11DB11D809398
S1130B80940290939502A0939602B0939702BF911A
S1130B90AF919F918F910F900FBE0F901F9018955A
S1130BA01F920F920FB60F9211242F938F939F933E
S1130BB0EF93FF938091C0002091C6008C71E09167
S1130BC0A602EF5FEF719091A502E91739F0E09367
S1130BD0A602F0E0E755FD4F208301C082E090912A
S1130BE0A402892B8093A402FF91EF919F918F918E
S1130BF02F910F900FBE0F901F9018951F920F9278
S1130C000FB60F9211248F939F93EF93FF939091BC
S1130C10A8028091A702981769F0E091A702EF5FFC
S1130C20EF73E093A702F0E0E753FD4F80818093D8
S1130C30C60005C0E1ECF0E080818F7D8083FF91E8
S1130C40EF919F918F910F900FBE0F901F90189569
S1130C501092A8021092A7021092A6021092A50266
S1130C60282F392F33231CF422E02093C0009078DE
S1130C709093C5008093C40088E98093C10086E006
S1130C808093C20008959091A6028091A5029817BE
S1130C90A9F09091A5029F5F9F71E92FF0E0E755BD
S1130CA0FD4F20818091A4029093A5021092A4028A
S1130CB090E0982F8827820F911D089580E091E09D
S1130CC008952091A8022F5F2F739091A7022917EE
S1130CD0E1F3E22FF0E0E753FD4F80832093A80275
S1130CE0E1ECF0E08081806280830895CF93DF930C
S1130CF0EC0103C021960E94610688818111FACF1C
S1130D00DF91CF9108950F931F93CF93DF93CDB7C6
S1130D10DEB7E2970FB6F894DEBF0FBECDBF2FE764
S1130D2032E03F932F939F938F9381E892E09F93B8
S1130D308F9383E892E09F938F938E010F5F1F4FF1
S1130D401F930F930E94B108C8010E9476060FB644
S1130D50F894DEBF0FBECDBFE2960FB6F894DEBFA7
S1130D600FBECDBFDF91CF911F910F910895CF9307
S1130D70DF93EC010E94430690FD04C0888381E068
S1130D8090E002C080E090E0DF91CF91089520913F
S1130D90090330910A03FC018081F901EB5EFC4FE9
S1130DA080832F5F3F4F30930A03209309030895F4
S1130DB00F931F93CF93DF93CDB7DEB7A9970FB6E9
S1130DC0F894DEBF0FBECDBF80910B038130B1F02C
S1130DD030F0823009F44EC0833041F15CC0CE0162
S1130DE001960E94B706892B09F452C089818C337D
S1130DF009F04EC081E080930B034AC0CE010196F6
S1130E000E94B706892B09F443C089818C3319F4F5
S1130E1093E090930B038E3321F482E080930B03D1
S1130E2037C0CE0101960E94C70632C01092150346
S1130E3010920A031092090310920B038AE892E0BD
S1130E409F938F9381E492E09F938F938BE592E03D
S1130E509F938F938E010E5F1F4F1F930F930E94DA
S1130E60B108C8010E9483060FB6F894DEBF0FBE16
S1130E70CDBF0EC0E0910903F0910A03EA5EFC4F76
S1130E80108210920A031092090381E090E005C0D9
S1130E9080E090E002C080E090E0A9960FB6F8945C
S1130EA0DEBF0FBECDBFDF91CF911F910F9108958B
S1130EB0AC0120E030E00AC0FA01E20FF31FD901CF
S1130EC0AB5EBC4F9C9190832F5F3F4FF901EB5E6B
S1130ED0FC4F90819111F0CFFA01E20FF31F1082C1
S1130EE082E3E5E1F3E0DF011D928A95E9F71092D0
S1130EF00B0308950E948E070C9440080E94390841
S1130F0058F00E94320840F029F45F3F29F00C9415
S1130F10290851110C9474080C942F080E9451084C
S1130F2068F39923B1F3552391F3951B550BBB2714
S1130F30AA2762177307840738F09F5F5F4F220F59
S1130F40331F441FAA1FA9F335D00E2E3AF0E0E850
S1130F5032D091505040E695001CCAF72BD0FE2F9A
S1130F6029D0660F771F881FBB1F2617370748072E
S1130F70AB07B0E809F0BB0B802DBF01FF279358E6
S1130F805F4F3AF09E3F510578F00C9429080C9479
S1130F9074085F3FE4F3983ED4F38695779567959C
S1130FA0B795F7959F5FC9F7880F911D969587951B
S1130FB097F90895E1E0660F771F881FBB1F62173A
S1130FC073078407BA0720F0621B730B840BBA0BF8
S1130FD0EE1F88F7E0950895E89409C097FB3EF466
S1130FE090958095709561957F4F8F4F9F4F992372
S1130FF0A9F0F92F96E9BB279395F69587957795F0
S11310006795B795F111F8CFFAF4BB0F11F460FFAF
S11310101BC06F5F7F4F8F4F9F4F16C0882311F007
S113102096E911C0772321F09EE8872F762F05C01B
S1131030662371F096E8862F70E060E02AF09A95B6
S1131040660F771F881FDAF7880F9695879597F9AB
S1131050089597F99F6780E870E060E008959FEF36
S113106080EC089500240A9416161706180609063B
S1131070089500240A94121613061406050608950A
S1131080092E0394000C11F4882352F0BB0F40F492
S1131090BF2B11F460FF04C06F5F7F4F8F4F9F4FD2
S11310A0089557FD9058440F551F59F05F3F71F054
S11310B04795880F97FB991F61F09F3F79F08795BB
S11310C00895121613061406551FF2CF4695F1DF44
S11310D008C0161617061806991FF1CF86957105D4
S11310E0610508940895E894BB2766277727CB0108
S11310F097F90895EF920F931F93CF93DF93E8012D
S113110047FD02C034E001C034E1042E000C550B4D
S113111057FF03C0519541955109E32E022F242F07
S1131120AE010E94B40ACE01DF91CF911F910F91BD
S1131130EF900895FB01DC018D910190801901105D
S1131140D9F3990B0895FB01DC014150504030F074
S11311508D910190801919F40020B9F7881B990B1F
S11311600895AEE0B0E0E7EBF8E00C94CC0D0D8907
S11311701E8986E08C831A8309838FEF9FE79E8301
S11311808D83AE01475E5F4F6F89788DCE010196E6
S11311900E94D308EF81F885E00FF11F10822E968C
S11311A0E4E00C94E80DABE0B0E0E9EDF8E00C9479
S11311B0BE0D6C017B018A01FC01178216828381BA
S11311C081FFCCC1CE0101963C01F6019381F70168
S11311D093FD859193FF81917F01882309F4BAC11E
S11311E0853239F493FD859193FF81917F01853296
S11311F029F4B60190E00E94FC0CE7CF912C212C3D
S1131200312CFFE1F315D8F08B3279F038F48032C9
S113121079F08332A1F4232D20611DC08D3261F059
S1131220803369F4232D216016C0832D8260382E0B
S1131230E32DE4603E2E2AC0F32DF8601DC037FC78
S11312402DC020ED280F2A3040F08E32B9F436FC40
S113125081C1232D2064322E19C036FE06C08AE0D7
S1131260989E200D1124922E11C0EAE02E9E200D8E
S11312701124222EF32DF0623F2E08C08C3621F467
S1131280832D8068382E02C0883641F4F70193FD1F
S1131290859193FF81917F018111B3CF982F9F7D19
S11312A09554933028F40C5F1F4F9FE399830DC02E
S11312B0833631F0833771F0833509F059C021C08A
S11312C0F801808189830E5F1F4F88248394912CB9
S11312D0530113C02801F2E04F0E511CF801A08005
S11312E0B18036FE03C0692D70E002C06FEF7FEF5E
S11312F0C5010E94F10C4C018201F32DFF773F2EB2
S113130016C0280122E0420E511CF801A080B180D1
S113131036FE03C0692D70E002C06FEF7FEFC50198
S11313200E94E60C4C01F32DF0683F2E820133FC41
S11313301BC0822D90E088169906B0F4B60180E2B5
S113134090E00E94FC0C2A94F4CFF50137FC8591BF
S113135037FE81915F01B60190E00E94FC0C2110E0
S11313602A9421E0821A91088114910471F7E8C04B
S1131370843611F0893641F5F80137FE07C06081E3
S11313807181828193810C5F1F4F08C060817181DC
S1131390072E000C880B990B0E5F1F4FF32DFF7661
S11313A03F2E97FF09C090958095709561957F4F6A
S11313B08F4F9F4FF0683F2E2AE030E0A3010E9438
S11313C0380D882E861845C0853731F4232D2F7E9D
S11313D0B22E2AE030E025C0932D997FB92E8F36A6
S11313E0C1F018F4883579F0B5C0803719F0883722
S11313F021F0B0C0E92FE061BE2EB4FE0DC0FB2D7C
S1131400F460BF2E09C034FE0AC0292F2660B22E14
S113141006C028E030E005C020E130E002C020E151
S113142032E0F801B7FE07C0608171818281938147
S11314300C5F1F4F06C06081718180E090E00E5FF9
S11314401F4FA3010E94380D882E8618FB2DFF77AD
S11314503F2E36FE0DC0232D2E7FA22E891458F464
S113146034FE0BC032FC09C0832D8E7EA82E05C02D
S1131470B82CA32C03C0B82C01C0B92CA4FE0FC0F7
S1131480FE01E80DF11D8081803321F49A2D997EAF
S1131490A92E09C0A2FE06C0B394B39404C08A2D39
S11314A0867809F0B394A3FC11C0A0FE06C0B21460
S11314B088F4280C922C9B180EC0B21460F4B60168
S11314C080E290E00E94FC0CB394F7CFB21418F4BD
S11314D02B1802C0982C212CA4FE10C0B60180E366
S11314E090E00E94FC0CA2FE17C0A1FC03C088E798
S11314F090E002C088E590E0B6010CC08A2D8678A1
S113150059F0A1FE02C08BE201C080E2A7FC8DE28B
S1131510B60190E00E94FC0C891438F4B60180E313
S113152090E00E94FC0C9A94F7CF8A94F301E80DA2
S1131530F11D8081B60190E00E94FC0C8110F5CF72
S1131540222009F442CEB60180E290E00E94FC0C15
S11315502A94F6CFF6018681978102C08FEF9FEF20
S11315602B96E2E10C94DA0DA9E0B0E0EAEBFAE0A4
S11315700C94C40D6A01122FB02E2BE3201720F017
S1131580FF24F394F00E02C02CE3F22E0F2D27E07B
S1131590AE014F5F5F4F0E940E0CBC014981842F46
S11315A08970813031F0E1FC06C0E0FE06C090E2B3
S11315B005C09DE203C09BE201C090E05E2D507126
S11315C043FF3CC0911102C083E001C084E0811755
S11315D018F4212F281B01C020E051110BC0F60183
S11315E0822F30E2882319F031938150FBCFC20E51
S11315F0D11C20E0992329F0D6019C93F601319661
S11316006F01C6010396E2FE0AC03EE4D6013C9394
S113161041E411964C93119712963C9306C03EE612
S1131620F601308341E641833283FC01322F40E2EC
S1131630332309F442C041933150FACF42FF44C0EE
S1131640911102C083E001C084E0811718F4212FB6
S1131650281B01C020E051110BC0F601822F30E29B
S1131660882319F031938150FBCFC20ED11C20E0A6
S1131670992329F0D6019C93F60131966F01C60196
S11316800396E2FE0BC039E4D6013C933EE4119686
S11316903C93119736E412963C9307C039E6F60161
S11316A030833EE6318336E63283FC01322F40E25A
S11316B0332319F041933150FBCFFC01E20FF11DAC
S11316C010828EEF9FEFA6C021E030E0911102C09E
S11316D020E030E0161617061CF4FB01319602C018
S11316E0E1E0F0E02E0F3F1FBB2021F0EB2DF0E0F6
S11316F0319602C0E0E0F0E02E0F3F1FE12FF0E052
S11317002E173F071CF4121B212F01C020E08E2D41
S1131710887159F4F601822F30E2882319F031934D
S11317208150FBCFC20ED11C20E0992329F0D601B1
S11317309C93F60131966F0151110BC0F601822F73
S113174090E3882319F091938150FBCFC20ED11CF2
S113175020E00F2D060F9A81342F307144FF03C00F
S1131760913309F40150101624F4093018F008E0FC
S113177001C001E0AB0177FF02C040E050E0FB0193
S1131780E41BF50BA1E0B0E0AC0FBD1FEA0FFB1F9B
S11317908EE2A82E4B01801A91080B2D10E01195B2
S11317A0019511094F3FBFEF5B0721F4D601AC92BD
S11317B011966D01641775072CF08416950614F4C0
S11317C0818101C080E3415051093196D6011196BF
S11317D07D014017510724F0D6018C936701E2CFB5
S11317E06417750739F4963320F4953319F43111DD
S11317F001C081E3F6018083F701822F90E2882300
S113180019F091938150FBCFF701E20FF11D108283
S113181080E090E02996ECE00C94E00D283008F08C
S113182027E03327DA01990F311D87FD9160009677
S11318306105710539F432602E5F3D9330E32A95DA
S1131840E1F708959F3F30F080387105610509F094
S11318503C5F3C5F3D93913008F08068911DDF93BD
S1131860CF931F930F93FF92EF92192F987F969522
S1131870E92F96959695E90FFF27EE53FF4F992789
S11318803327EE24FF24A701E70105900894079469
S113189028F4360FE71EF81E491F511D660F771FE7
S11318A0881F991F0694A1F70590079428F4E70E62
S11318B0F81E491F561FC11D770F881F991F661FE9
S11318C00694A1F70590079428F4F80E491F561FB3
S11318D0C71FD11D880F991F661F771F0694A1F794
S11318E00590079420F4490F561FC71FD81F990F5E
S11318F0661F771F881F0694A9F7849110951770A7
S113190041F0D695C79557954795F794E7941A955E
S1131910C1F7E8E6F0E0689415901591359165916A
S1131920959105907FE27395E118F10A430B560BEC
S1131930C90BD009C0F7E10CF11E431F561FC91F84
S1131940D01D7EF4703311F48A95E6CFE8940150EB
S113195030F0080F0AF40027021708F4202F23950B
S1131960022F7A3328F079E37D932A95E9F710C0A2
S11319707D932A9589F606949795679537951795DB
S11319801794E118F10A430B560BC90BD00998F0D0
S113199023957E9173957A3308F070E37C9320133A
S11319A0B8F77E9170617D9330F0839571E37D93F8
S11319B070E32A95E1F71124EF90FF900F911F91A6
S11319C0CF91DF91992787FD90950895FC010590AB
S11319D0615070400110D8F7809590958E0F9F1F2D
S11319E00895FC016150704001900110D8F7809572
S11319F090958E0F9F1F08950F931F93CF93DF939E
S1131A00FB01238121FD03C08FEF9FEF2CC022FF38
S1131A1016C046815781248135814217530744F407
S1131A20A081B1819D012F5F3F4F318320838C932F
S1131A30268137812F5F3F4F3783268314C08B0164
S1131A40EC01FB010084F185E02D0995892BE1F679
S1131A50D80116968D919C911797019617969C9391
S1131A608E931697CE01DF91CF911F910F91089518
S1131A70FA01AA27283051F1203181F1E8946F93BB
S1131A806E7F6E5F7F4F8F4F9F4FAF4FB1E03ED061
S1131A90B4E03CD0670F781F891F9A1FA11D680FFF
S1131AA0791F8A1F911DA11D6A0F711D811D911D32
S1131AB0A11D20D009F468943F912AE0269F1124A7
S1131AC03019305D3193DEF6CF010895462F47700B
S1131AD0405D4193B3E00FD0C9F7F6CF462F4F7066
S1131AE0405D4A3318F0495D31FD4052419302D0C4
S1131AF0A9F7EACFB4E0A69597958795779567956A
S1131B00BA95C9F700976105710508959B01AC0169
S1131B100A2E06945795479537952795BA95C9F790
S1131B20620F731F841F951FA01D0895DC01CB0154
S1131B30FC01F999FECF06C0F2BDE1BDF89A3196D9
S1131B4000B40D9241505040B8F70895DC01CB0128
S1131B5003C02D910E94B10D41505040D0F708951B
S1131B60262FF999FECF1FBA92BD81BD20BD0FB6B5
S1131B70F894FA9AF99A0FBE019608952F923F921B
S1131B804F925F926F927F928F929F92AF92BF9289
S1131B90CF92DF92EF92FF920F931F93CF93DF9335
S1131BA0CDB7DEB7CA1BDB0B0FB6F894DEBF0FBE92
S1131BB0CDBF09942A88398848885F846E847D84DF
S1131BC08C849B84AA84B984C884DF80EE80FD80E1
S1131BD00C811B81AA81B981CE0FD11D0FB6F89457
S1111BE0DEBF0FBECDBFED010895F894FFCF18
S1131BEE010000316253C4F5A697B988DBEA7D4C37
S1131BFE1F2E4372211087B6E5D4FACB98A93E0F57
S1131C0E5C6D86B7E4D5427320113F0E5D6CFBCA42
S1131C1E99A8C5F4A796013063527C4D1E2FB8893E
S1131C2EDAEB3D0C5F6EF9C89BAA84B5E6D740711A
S1131C3E22137E4F1C2DBA8BD8E9C7F6A594033216
S1131C4E6150BB8AD9E87F4E1D2C02336051C6F712
S1131C5EA495F8C99AAB3C0D5E6F4170231285B4FE
S1131C6EE7D67A4B1829BE8FDCEDC3F2A190073666
S1131C7E655439085B6AFDCC9FAE80B1E2D34475DE
S1131C8E2617FCCD9EAF38095A6B4574271681B0C2
S1131C9EE3D2BF8EDDEC7B4A192806376455C2F3B6
S1131CAEA0914776251483B2E1D0FECF9CAD3A0BBA
S1131CBE586904356657C0F1A293BD8CDFEE79489E
S1131CCE1B2AC1F0A3920534675678491A2BBC8D92
S1131CDEDEEF82B3E0D1467724153B0A5968FFCE76
S1131CEE9DAC48656C6C6F2100476F6F6420427920
S1131CFE652100436865636B73756D20696E76614B
S1131D0E6C696400423B61003A00737769746368DE
S1131D1E007C0070686F746F5F766F6C74616765BA
S1131D2E003B004D25735B257325732573257325A1
S1131D3E73257325645D00423B74004D25735B254A
S1131D4E735D00423B7100423B7472004E4F4B0078
S1131D5E2500496E74657276616C3A202564003EE6
S1131D6E003C00257325732573004661696C656418
S1051D7E00005F
S9030000FC
